:100000000C9434000C9446000C9446000C9446006A
:100010000C9446000C9446000C9446000C94460048
:100020000C9446000C9446000C9446000C94460038
:100030000C9446000C9446000C9441010C9446002C
:100040000C9446000C9446000C94F7000C94460067
:100050000C9446000C9446000C9446000C94460008
:100060000C9446000C94460011241FBECFEFD8E03C
:10007000DEBFCDBF21E0A0E0B1E001C01D92A43100
:10008000B207E1F70E949E000C9472010C940000EC
:1000900087B1806387B984B1866084B9519A579AD1
:1000A0005A9A559A569A579A5B985B982998089548
:1000B00082E084BD85E085BD8CE987BDEEE6F0E099
:1000C000808182608083089588E48AB982E084B95F
:1000D0003A9A3B9A519A5098429843981092C50088
:1000E0008BE98093C400E2ECF0E08081866080833D
:1000F000E1ECF0E0808188618083A0ECB0E08C913D
:1001000082608C938081806880830895E0ECF0E0C9
:10011000908195FFFDCF8093C60080E00895809187
:100120000B0181FF02C05E9801C05E9A80910C01B4
:1001300081FF02C05B9808955B9A08950E94480071
:100140000E9464000E945800789412E0CAE0D1E056
:100150008091000190910101892BE1F480910201CD
:1001600090910301019721F58881813060F08330FF
:1001700018F08D3421F007C00E948F0006C08DE476
:100180000E94860002C00E94860010920301109215
:1001900002010EC05E985B9885B1812785B92FE377
:1001A0003EE785E0215030408040E1F700C000008C
:1001B0008091040190910501892B79F0F89490E4E5
:1001C0008BB189278BB92FEF3EE984E22150304073
:1001D0008040E1F700C00000F3CF9FE729EA33E059
:1001E000915020403040E1F700C00000B1CF1F9295
:1001F0000F920FB60F9211242F933F938F939F93DB
:10020000EF93FF93109201011092000110920901E7
:100210001092080180910601909107018A309105A2
:10022000F9F02091020130910301232BC9F42091B0
:10023000C600FC01E65FFE4F2083213659F481E0C1
:1002400090E09093030180930201109207011092B5
:1002500006010CC00196909307018093060106C029
:1002600081E090E09093050180930401FF91EF916C
:100270009F918F913F912F910F900FBE0F901F90E4
:1002800018951F920F920FB60F9211242F938F93F0
:100290009F93809108019091090180362AEE920780
:1002A00038F081E090E0909309018093080112C03A
:1002B000019690930901809308018132934050F098
:1002C00081E090E090930101809300011092090178
:1002D000109208019F918F912F910F900FBE0F9058
:0802E0001F901895F894FFCF60
:00000001FF
