S01300004D61696E53746174696F6E2E73726563AA
S11300000C94FE000C9416010C9416010C94160129
S11300100C9416010C9416010C9416010C94160100
S11300200C9416010C9416010C9416010C941601F0
S11300300C9416010C9416010C94D9020C9416011C
S11300400C9416010C9416010C9416010C941601D0
S11300500C949F020C9416010C9416010C94160136
S11300600C9416010C94D9010C9416010C941601ED
S11300700C9450020C9416010C9416010C94160165
S11300800C9416010C9416010C9416010C94160190
S11300900C9416010C9416010C9416010C94160180
S11300A00C9416010C9416010C9416010C94160170
S11300B00C9416010C9416010C9416010C94160160
S11300C00C9416010C9416010C9416010C94160150
S11300D00C9416010C9416010C9416010C94160140
S11300E00C9416010C9416010C941B020C9416012A
S11300F00C9416010C9416010C9416010C94160120
S11301000C9416010C9416010C9416010C9416010F
S11301100C9416010C9416010C9416010C941601FF
S11301200C9416010C9416010C9416010C941601EF
S11301300C9416010C9416010C9416010C941601DF
S11301400C9416010C9416010C9416010C941601CF
S11301500C9416010C9416010C9416010C941601BF
S11301600C9416010C9416010C9416010C941601AF
S11301700C9416010C9416010C9416010C9416019F
S11301800C9416010C9416010C9416010C9416018F
S11301900C9416010C9416010C9416010C9416017F
S11301A00C9416010C9416010C9416010C9416016F
S11301B00C9416010C9416010C9416010C9416015F
S11301C00C9416010C9416010C9416010C9416014F
S11301D00C9416010C9416010C9416010C9416013F
S11301E00C9416010C9416010C9416010C9416012F
S11301F00C9416010C9416010C94160111241FBEC4
S1130200CFEFCDBFDFE3DEBF00E00CBF18BE19BEE9
S11302101ABE1BBE23E2A0E0B0E201C01D92AA31C7
S1130220B207E1F70E94B8010C9461030C9400003A
S1130230E0E4F6E088E0818384E0828381E08183E6
S1130240868382E08183868341E060EA78E084E00B
S113025090E20E941E03E0EAF8E083E08583838154
S11302608F7C806183838CE08683178284818061A4
S113027084838481886084830895EF920F93E0E4FB
S1130280F6E080E8818380E48283EE24E39408E14D
S113029020E040E060E280E496E00E94ED0241E06C
S11302A060EB78E083E192E20E941E03E0EBF8E069
S11302B083E0858383818F7C806183838CE0868364
S11302C017828481806184838481886084830F9110
S11302D0EF90089580E197E2809326089093270891
S11302E061E080E098E00E94120367E080E098E01B
S11302F00E940603089580E991E080936608909334
S1130300670861E080E498E00E94180367E080E4F5
S113031098E00E940C030895E1EAF8E0808185FFEB
S1130320FDCF809102208093A008E1EAF8E080816B
S113033085FFFDCF809100208093A008E1EAF8E0DA
S1130340808185FFFDCF809101208093A008E1EAA0
S1130350F8E0808185FFFDCF81E68093A0080895B1
S1130360E1EBF8E0908195FFFDCF8093B00808950C
S11303700E9418010E943D010E946A010E947B01B3
S1130380E0EAF0E0828187608283789480910220A1
S1130390813021F080910220823021F40E948C016E
S11303A0109202208FE097E20197F1F700C000005D
S11303B0EDCF1F920F920FB60F92112408B60F9231
S11303C018BE09B60F9219BE0BB60F921BBE2F931F
S11303D03F934F935F936F937F938F939F93AF93C9
S11303E0BF93EF93FF9384E090E20E94450306C01D
S11303F084E090E20E9437030E94B00184E090E21E
S11304000E942C038111F4CFFF91EF91BF91AF9122
S11304109F918F917F916F915F914F913F912F9118
S11304200F900BBE0F9009BE0F9008BE0F900FBE29
S11304300F901F9018951F920F920FB60F921124D0
S113044008B60F9218BE09B60F9219BE0BB60F92DA
S11304501BBE2F933F934F935F936F937F938F9321
S11304609F93AF93BF93EF93FF938CE091E20E942D
S11304704503FF91EF91BF91AF919F918F917F9130
S11304806F915F914F913F912F910F900BBE0F9001
S113049009BE0F9008BE0F900FBE0F901F901895C5
S11304A01F920F920FB60F92112408B60F9218BE26
S11304B009B60F9219BE0AB60F921ABE0BB60F9266
S11304C01BBE2F933F934F935F936F937F938F93B1
S11304D09F93AF93BF93CF93DF93EF93FF9383E106
S11304E092E20E944503C0EAD8E008C0898185FFF2
S11304F0FDCF83E192E20E943703888383E192E295
S11305000E942C038111F2CFFF91EF91DF91CF91E3
S1130510BF91AF919F918F917F916F915F914F9117
S11305203F912F910F900BBE0F900ABE0F9009BE02
S11305300F9008BE0F900FBE0F901F9018951F923A
S11305400F920FB60F92112408B60F9218BE2F9374
S11305508F939F93809108069091280620910B21F8
S1130560821304C0209103209217C9F080930B21B9
S11305709093032080910B2190910320807C869599
S11305808695890F8093002080910B218F7380932F
S1130590012082E08093022088E0809309089F91E3
S11305A08F912F910F9008BE0F900FBE0F901F9048
S11305B018951F920F920FB60F92112408B60F923E
S11305C018BE8F9381E0809302208F910F9008BE14
S11305D00F900FBE0F901F901895EF920F93FC0190
S11305E00E29411102C080E001C080E8082B2111CE
S11305F002C080E001C080E4082B9FB7F8946093A8
S1130600B000008B9FBF0F91EF900895FC01908183
S1130610907F692B60830895FC019081907F692B02
S113062060830895FC0196819C7F692B66830895FD
S1130630FC0196819C7F692B66830895FC0160838D
S113064071834283EC5FFE4F1082319710823396A0
S11306501082319710820895FC01ED5FFE4F2081D6
S11306603196908181E0291301C080E00895FC0156
S1130670EC5FFE4F2081DC01A20FB11D13968C911B
S113068090819F5F9F7790830895FC01ED5FFE4FFB
S113069020812F5F2F7731963081DC01ED91FC9121
S11306A011974081231759F0FC01ED5FFE4F308113
S11306B0A30FB11D13964C93208381E0089580E02D
S10906C00895F894FFCF39
S9030000FC
