S00B00006376312E737265630F
S11300000C9484070C94A1070C94A1070C94A107E9
S11300100C94A1070C94A1070C94A1070C94A107BC
S11300200C94A1070C94A1070C94A1070C94A107AC
S11300300C94A1070C94A1070C944B090C94A107F0
S11300400C94A1070C94A1070C9416090C94A10715
S11300500C94A1070C94A1070C94A1070C94A1077C
S11300600C94A1070C94A1070000000000000000FC
S11300700080C0E0F0F0F8F8F8FCFCFCFCFCFCFCB0
S1130080FCFCFCF8F8F8F0F0E0C080000000000090
S113009000000000000000E0F8FEFFFFFFFFFFFF8C
S11300A0FF7F1F0F0F0707070707070F0F1F7FFFAC
S11300B0FFFFFFFFFFFFFEF8E0000000000000006C
S11300C0FFFFFFFFFFFFFFFFFFFF1F000000000017
S11300D00000000000000000808FFFFFFFFFFFFF13
S11300E0FFFFFFFF800000000000FFFFFFFFFFFF96
S11300F0FFFFFFFF0000000080C0E0E0F0F8FCFC20
S1130100FEFF7F3FFFFFFFFFFFFFFFFFFFFFFF003B
S113011000000000FFFFFFFFFFFFFFFFFFFFFCFEEB
S1130120FF7F3F1F1F0F0707030100000000FFFFB1
S1130130FFFFFFFFFFFFFFFFFF00000000007FFF46
S1130140FFFFFFFFFFFFFFFFFD00000000000000B6
S113015000000000000000F8FFFFFFFFFFFFFFFFAB
S1130160FF7F00000000000000030F3F7FFFFFFF40
S1130170FFFFFFFFFCF8F8F0F0F0F0F0F0F8F8FC07
S1130180FFFFFFFFFFFFFF7F3F0F030000000000A2
S11301900000000000000000010307070F0F0F1FFD
S11301A01F1F1F1F1F1F1F1F1F0F0F0F07070301F5
S11301B0000000000000000000000000000000003B
S11301C0000000000000000000008080C0C0C0E00B
S11301D0E0E0F0F0F0F80000000000000000000093
S11301E000000000000000F0F8F8F8FCFCFCFEFE43
S11301F0FEFFFFFFFFFFFFFFFFFFFFFFFFFFFFFF0C
S113020000000000000000000000000000000000EA
S1130210003F1F1F0F0F070707030303010101FF1F
S1130220FFFFFFFFFFFFFFFFFFFF000000000000D4
S113023000000000000000000000000000000000BA
S1130240000000000000000000FFFFFFFFFFFFFFB1
S1130250FFFFFFFF0000000000000000000000009E
S1130260000000000000000000000000000000008A
S1130270000000FFFFFFFFFFFFFFFFFFFFFF000085
S1130280000000000000000000000000000000006A
S113029000000000000000000000000000FFFFFF5D
S11302A0FFFFFFFFFFFFFFFF000000000000000052
S11302B0000000000000000000000000000000003A
S11302C000000000000000FFFFFFFFFFFFFFFFFF33
S11302D0FFFF00000000000000000000000000001C
S11302E0000000000000000000000000000000000A
S11302F0000F0F0F0F0F0F0F0F0F0F0F0000000055
S1130300000000000000000000000000000080C0A9
S1130310C0E0F0F0F0F8F8F8FCFCFCFCFCFCFCFCA1
S1130320FCFCF8F8F8F0F0E0E0C080000000000009
S113033000000080E0F8FEFFFFFFFFFFFFFF7F3FAC
S11303401F0F07070707070707070F0F3F7FFFFF69
S1130350FFFFFFFFFFFFFCF080000000000F0F0F06
S11303600F0F0F0F0F0F0F0F000000000000000011
S113037000000000000000C0FFFFFFFFFFFFFFFFC1
S1130380FFFF3F000000000000000000000000002C
S1130390000000000000000000000080C0E0F8FC45
S11303A0FFFFFFFFFFFFFFFF7F1F070100000000AB
S11303B0000000000000000000000000000080C0F9
S11303C0E0F0FCFEFFFFFFFFFFFFFF7F3F1F07037F
S11303D00100000000000000000000000000000018
S11303E000C0E0F0F8FCFEFFFFFFFFFFFF7F3F1FB0
S11303F00F070301000000000000000000000000DF
S1130400000000000000F0F8FCFEFFFFFFFFFFFF0C
S1130410FFFFFFFFFBF9F8F8F8F8F8F8F8F8F8F838
S1130420F8F8F8F8F8F8F8F8F8F8F8F8F800000030
S11304300F0F0F0F0F0F0F0F0F0F0F0F0F0F0F0FC8
S11304400F0F0F0F0F0F0F0F0F0F0F0F0F0F0F0FB8
S11304500F0F0F0F0F0F0F000000000000000080AF
S1130460C0E0E0F0F0F8F8F8FCFCFCFCFCFCFCFC60
S1130470FCFCF8F8F8F8F0F0E0E0C08000000000C0
S11304800000000000F0FCFEFFFFFFFFFFFFFFFF86
S11304903F1F0F07070707070707070F0F1F7FFFF8
S11304A0FFFFFFFFFFFFFFFEF8C000000000030393
S11304B0030303030303030303000000000000001D
S11304C00000000000000000C0FFFFFFFFFFFFFF6F
S11304D0FFFFFF3F000000000000000000000000DC
S11304E000000000F8F8F8F8F8F8F8F8F8F8FCFC60
S11304F0FEFFFFFFFFFF7F3F1F1F0F0301000000F0
S113050000000000000000000000000000000F0FC9
S11305100F0F0F0F0F0F0F0F0F1F1F3F7FFFFFFF57
S1130520FFFFFEFEFCF8F0C000000000E0E0E0E0A9
S1130530E0E0E0E0E0E0E000000000000000000097
S11305400000000000000081FFFFFFFFFFFFFFFF2E
S1130550FFFFFE000000030F3F7FFFFFFFFFFFFFD1
S1130560FFFFFCF8F8F0F0F0F0F0F0F0F0F8F8FC31
S1130570FEFFFFFFFFFFFFFF7F3F1F07000000009C
S1130580000000000001030307070F0F0F0F1F1FD8
S11305901F1F1F1F1F1F1F1F0F0F0F0F070703030F
S11305A00100000000000000000000000000000046
S11305B00000000000000000000000000080C0F007
S11305C0F8F8F8F8F8F8F8F8F8F8F800000000007F
S11305D00000000000000000000000000000000017
S11305E0000080C0F0F8FEFFFFFFFFFFFFFFFFFFEA
S11305F0FFFFFFFFFF0000000000000000000000FC
S11306000000000000000080C0F0FCFEFFFFFFFFC0
S1130610FF7F1F07FFFFFFFFFFFFFFFFFFFFFF003D
S113062000000000000000000000000080C0F0FC9A
S1130630FEFFFFFFFFFF3F1F070300000000FFFF57
S1130640FFFFFFFFFFFFFFFFFF00000000000000AF
S11306500080C0F0FCFEFFFFFFFFFFBF9F8781808B
S11306608080808080808080FFFFFFFFFFFFFFFF8E
S1130670FFFFFF808080808080800EFFFFFFFFFFF0
S1130680FFFFFFFFFFFFFFFFFFFFFFFFFFFFFFFF76
S1130690FFFFFFFFFFFFFFFFFFFFFFFFFFFFFFFF66
S11306A0FFFFFFFF0000000000000000000000004A
S11306B0000000000000000000000000FFFFFFFF3A
S11306C0FFFFFFFFFFFFFF0000000000000000002D
S11306D00000000000000000000000000000000016
S11306E00000000000000F0F0F0F0F0F0F0F0F0F70
S11306F00F0000000000000000000000000000F8EF
S1130700F8F8F8F8F8F8F8F8F8F8F8F8F8F8F8F865
S1130710F8F8F8F8F8F8F8F8F8F8F8F8F8F8F8004D
S11307200000000000000000FCFFFFFFFFFFFFFFD0
S1130730FFFF0F0F0F0F0F0F0F0F0F0F0F0F0F0FE5
S11307400F0F0F0F0F0F0F0F0F000000000000001E
S113075000F8FFFFFFFFFFFFFFFFFF07000000801F
S11307608080808080808080000000000000000085
S113077000000000000000000000E0FFFFFFFFFF9A
S1130780FFFFFFFFFFFEFEFFFFFFFFFFFFFFFFFF77
S1130790FFFFFFFFFFFEFEFCFCF8F0C0800000003E
S11307A00000000001010103030303070703010123
S11307B00000000000000000000103030F3FFFFFE2
S11307C0FFFFFFFFFFFFFFFCC000000000E0E0E0D0
S11307D0E0E0E0E0E0E0E0C0000000000000000035
S11307E000000000000000C0FFFFFFFFFFFFFFFF4D
S11307F0FFFF1F00000000030F1F7FFFFFFFFFFF2D
S1130800FFFFFEFCF8F8F0F0F0F0F0F0F0F8F8FC80
S1130810FFFFFFFFFFFFFFFF7F3F0F03000000000C
S11308200000000000000101030707070F0F0F1F5E
S11308301F1F1F1F1F1F1F1F1F0F0F0F070703035C
S113084001000000000000000000000000000000A3
S113085000000000008080C0E0E0F0F0F0F8F8F85C
S1130860F8FCFCFCFCFCFCFC0000000000000000A8
S1130870000000000000000080C0F0F8FCFEFFFF54
S1130880FFFFFFFF7F7F3F1F1F0F0F0F07070707A4
S113089007070000000000000000000000000080C6
S11308A0F0FEFFFFFFFFFFFFFFFF3F070300008095
S11308B08080C0C0C0C0C0C0808080000000000034
S11308C00000000000000000F0FFFFFFFFFFFFFF3B
S11308D0FFFFFFF9FCFEFEFF7F7F7F7F7F7FFFFF2F
S11308E0FFFFFFFFFFFFFFFEFCFCF0E080000000C5
S11308F00000FFFFFFFFFFFFFFFFFFFFFF0F0301EC
S1130900000000000000000000000103071FFFFFBB
S1130910FFFFFFFFFFFFFFFEE0000000077FFFFF78
S1130920FFFFFFFFFFFFFFE00000000000000000EA
S113093000000000000000C0FFFFFFFFFFFFFFFFFB
S1130940FFFF3F0000000000030F1F7FFFFFFFFFBA
S1130950FFFFFFFEFCF8F0F0F0F0F0F0F0F8F8FC28
S1130960FFFFFFFFFFFFFFFF7F1F0F0100000000DD
S11309700000000000000001010307070F0F0F1F14
S11309801F1F1F1F1F1F1F1F1F0F0F0F070703010D
S11309900100000000000000000000000000000052
S11309A00000000000000000000000000000000043
S11309B00000000000000000000000000000000033
S11309C00000000000000000000000000000000023
S11309D00000000000000000000000000000000013
S11309E00000000000000000000000000000000003
S11309F000000000000000000000000000000000F3
S1130A0000000000000000000000000000000000E2
S1130A10000000000000000000F0F0F0F0F0F0F042
S1130A20F0F0F0F0F0F0F0F0F0F0F0F0F0F0F0F0C2
S1130A30F0F0F0F0F0F0F0F0F0F0F0F0F000000082
S1130A400000000F0F0F0F0F0F0F0F0F0F0F0F0FDF
S1130A500F0F0F0F0F0F0F0F0F0F0F0F0F0F0F0FA2
S1130A600F0F0F0F0F0F0F00000000000000000019
S1130A700000000000000000000000000000000072
S1130A800000000000000000000000000000000062
S1130A900000000000000000000000000000000052
S1130AA00000000000000000000000000000000042
S1130AB00000000000000000000000000000000032
S1130AC00000000000000000000000000000000022
S1130AD00000000000000000000000000000000012
S1130AE00000000000000000000000C0E0F0F0F092
S1130AF0F0F0F0F0F0F0F0F0F0F0F0E0C000000002
S1130B00000000FFFFFFFF010000000000000000E4
S1130B1001FFFFFFFF000000000000FFFFFFFF8058
S1130B20000000000000000080FFFFFFFF00000045
S1130B3000000003070F0F0F0F0F0F0F0F0F0F0F02
S1130B400F0F0F070300000000000000000000006A
S1130B50000000000000E0F0F0E0000000000000F1
S1130B600000000000000000000000000000FFFF83
S1130B70FFFF000000000000000000000000000073
S1130B80000000000000FFFFFFFF00000000000065
S1130B900000000000000000000000000000030747
S1130BA00703000000000000000000E0F0F0F0F097
S1130BB0F0F0F0F0F0F0F0F0F0F0F0E00000000001
S1130BC000000081C1C0C0C0C0C0C0C0C0C0C0E17E
S1130BD0FFFFFFFF00000000000000FFFFFFFF8792
S1130BE003030303030303030303838100000000DF
S1130BF0000000070F0F0F0F0F0F0F0F0F0F0F0F36
S1130C000F0F0F0700000000000000E0F0F0F0F00C
S1130C10F0F0F0F0F0F0F0F0F0F0F0E000000000A0
S1130C2000000081C1C0C0C0C0C0C0C0C0C0C0E11D
S1130C30FFFFFF7F00000000000000818303030327
S1130C400303030303030387FFFFFFFE0000000009
S1130C50000000070F0F0F0F0F0F0F0F0F0F0F0FD5
S1130C600F0F0F0700000000000000E0F0F0F0306C
S1130C700000000000000030F0F0F0E00000000090
S1130C80000000FFFFFFFFE0C0C0C0C0C0C0C0E064
S1130C90FFFFFFFF00000000000000010303030347
S1130CA00303030303030307FFFFFFFF0000000028
S1130CB00000000000000000000000000000000C24
S1130CC00F0F0F0700000000000000E0F0F0F0F04C
S1130CD0F0F0F0F0F0F0F0F0F0F0F0E000000000E0
S1130CE0000000FFFFFFFFE1C0C0C0C0C0C0C0C023
S1130CF0C0C0C18100000000000000818303030321
S1130D000303030303030387FFFFFFFF0000000047
S1130D10000000070F0F0F0F0F0F0F0F0F0F0F0F14
S1130D200F0F0F0700000000000000E0F0F0F0F0EB
S1130D30F0F0F0F0F0F0F0F0F0F0F0E0000000007F
S1130D40000000FFFFFFFFE1C0C0C0C0C0C0C0C0C2
S1130D50C0C0C18100000000000000FFFFFFFF874A
S1130D600303030303030387FFFFFFFF00000000E7
S1130D70000000070F0F0F0F0F0F0F0F0F0F0F0FB4
S1130D800F0F0F0700000000000000E0F0F0F0F08B
S1130D90F0F0F0F0F0F0F0F0F0F0F0E0000000001F
S1130DA0000000010100000000000000000000013C
S1130DB0FFFFFFFF00000000000000000000000033
S1130DC00000000000000000FFFFFFFF0000000023
S1130DD00000000000000000000000000000000C03
S1130DE00F0F0F0700000000000000E0F0F0F0F02B
S1130DF0F0F0F0F0F0F0F0F0F0F0F0E000000000BF
S1130E000000007FFFFFFFE1C0C0C0C0C0C0C0E160
S1130E10FFFFFF3F00000000000000FEFFFFFF8710
S1130E200303030303030387FFFFFFFE0000000027
S1130E30000000070F0F0F0F0F0F0F0F0F0F0F0FF3
S1130E400F0F0F0700000000000000E0F0F0F0F0CA
S1130E50F0F0F0F0F0F0F0F0F0F0F0E0000000005E
S1130E60000000FFFFFFFFE1C0C0C0C0C0C0C0E180
S1130E70FFFFFFFF00000000000000010303030365
S1130E800303030303030307FFFFFFFF0000000046
S1130E900000000000000000000000000000000C42
S1130EA00F0F0F070000000000000000000000000A
S1130EB0000000000000000000000000000000002E
S1130EC00000000000000000003C7E7E7E7E3C00AE
S1130ED0000000000000000000000000000000000E
S1130EE000F0F8F8F8F8F00000000000000000003E
S1130EF000000000000000000000010101010000EA
S1130F00000000000000000011241FBECFEFD8E055
S1130F10DEBFCDBF11E0A0E0B1E0E8E6F5E102C03C
S1130F2005900D92A430B107D9F725E0A4E0B1E013
S1130F3001C01D92A431B207E1F70E94B5080C94D8
S1130F40B20A0C94000082E18093B800E9EBF0E06F
S1130F5080818C7F808385E08093BC00089594EA2F
S1130F609093BC00ECEBF0E090819923ECF7909126
S1130F70B900987F983099F48093BB0084E88093FB
S1130F80BC00ECEBF0E080818823ECF78091B900A1
S1130F90887F883131F0803231F083E0089580E039
S1130FA0089581E0089582E008958093BB0084E869
S1130FB08093BC00ECEBF0E080818823ECF7809117
S1130FC0B900887F883221F0803321F082E00895CF
S1130FD080E0089581E0089584E98093BC00ECEBFF
S1130FE0F0E0808184FDFDCF0895539A569A5B9872
S1130FF05E98219A2998089582E084BD85E085BD94
S11310008CE987BDEEE6F0E08081826080830895FC
S11310100E94A3078FE295E70197F1F700C0000053
S11310200E947E090E940F0A089587B18C6087B9D7
S113103088B1837F88B9519A5098589A1092C50004
S11310408BE98093C400E1ECF0E0808188608083C8
S1131050808180618083808180688083E2ECF0E01D
S1131060808186608083E0ECF0E080818260808310
S11310700895E0ECF0E0908195FFFDCF8093C600E9
S113108080E0089580910B0581FD04C082E0809387
S1131090000120C080FD04C081E0809300011AC0DB
S11310A082FD04C083E08093000114C083FD04C06A
S11310B084E0809300010EC084FD04C085E0809329
S11310C0000108C085FD04C086E08093000102C0D1
S11310D01092000180910C0581FD04C082E0809390
S11310E00101089580FD04C081E080930101089509
S11310F082FD04C083E080930101089583FD04C050
S113110084E080930101089584FD04C085E0809308
S11311100101089585FD04C086E0809301010895CE
S113112010920101089580910001823011F45E9AB9
S113113008955E9880910101823011F45B9A0895BC
S11311405B9808958091000140E050E060E070E019
S113115090E00E947A0A8091010146E050E060E04C
S113116070E090E00E94220A08950E9408080E94FC
S1131170A2080E94F5070E9415080E94FC077894B3
S113118012E0CAE0D5E080910401811124C02998BD
S113119080910501882369F18881843679F018F4F7
S11311A0823629F013C0863669F0833779F40E94B9
S11311B042080E94A2080E9493080AC08DE40E947B
S11311C0390806C082E50E94390802C00E94390825
S11311D0109205010EC05E985B9885B1812785B990
S11311E02FE33EE785E0215030408040E1F700C026
S11311F0000080910601882379F0F89490E48BB183
S113120089278BB92FEF3EE984E22150304080409A
S1131210E1F700C00000F3CF9FE729EA33E09150E3
S113122020403040E1F700C00000ADCF1F920F9284
S11312300FB60F9211248F939F93EF93FF93109205
S1131240040110920905109208058091050181118D
S113125019C0809107019091C600E82FF0E0E65F85
S1131260FA4F9083913631F481E080930501109216
S1131270070108C08F5F809307018A3018F081E06E
S113128080930601FF91EF919F918F910F900FBE74
S11312900F901F9018951F920F920FB60F92112462
S11312A02F938F939F938091080590910905019640
S11312B090930905809308058132934038F081E0CA
S11312C08093040110920905109208059F918F9153
S11312D02F910F900FBE0F901F901895CF93C82F8A
S11312E0809102010E94AF0780E00E94D5078C2FF5
S11312F00E94D5070E94EC07CF9108955C9A549AF6
S11313002FEF36E781E0215030408040E1F700C004
S113131000009BB180E198279BB99FEF26E731E05D
S1131320915020403040E1F700C000009BB1892774
S11313308BB98FEF96E721E0815090402040E1F790
S113134000C000008EEA0E946E0985ED0E946E09BD
S113135080E80E946E0988EA0E946E098FE30E9469
S11313606E0983ED0E946E0980E00E946E0980E49C
S11313700E946E098DE80E946E0984E10E946E0944
S113138081EA0E946E0988EC0E946E098AED0E942F
S11313906E0982E10E946E0981E80E946E098FEC59
S11313A00E946E0989ED0E946E0981EF0E946E0908
S11313B08BED0E946E0980E40E946E0984EA0E940B
S11313C06E0986EA0E946E098FEA0E946E090895EA
S11313D0CF93C82F809102010E94AF0780E40E943E
S11313E0D5078C2F0E94D5070E94EC07CF91089552
S11313F0CF93C62F80550E946E098C2F880F880FBB
S1131400880F88708E5F0E946E098C2F90E09695ED
S113141087958F70805F0E946E09CF910895CF9356
S1131420DF93D0E060E08D2F0E94F809C1E880E0EE
S11314300E94E809C150D9F7DF5FD83099F7DF91EE
S1131440CF9108957F928F929F92AF92BF92CF9245
S1131450DF92EF92FF920F931F93CF93DF937C0160
S11314604B01742E642F882D0E94F809C8EADEE02F
S11314700F2EF8E0CF2EFFE0DF2EF02D80E68E9DBC
S113148050018F9DB00C112400E010E080ECA81AEC
S113149083E0B80AEAE0EE16F1042CF0FE01849130
S11314A00E94E80906C0F501EC0FFD1F84910E941B
S11314B0E8090731110551F4FFEF8F1A9F0A672DD0
S11314C0882D0E94F80900E010E002C00F5F1F4F52
S11314D02196CC15DD05F1F6DF91CF911F910F9187
S11314E0FF90EF90DF90CF90BF90AF909F908F9040
S11314F07F900895DF92EF92FF920F931F93CF9303
S1131500DF93D42E8730910514F087E090E0F62E17
S113151020E531E0829FE001839FD00D929FD00DA2
S11315201124C859DF4F6894EE24E3F8E60E6D2DBC
S11315308F2D0E94F8098E01065D1F4FFE018491D4
S11315400E94E8092196C017D107C1F7F394E80176
S1131550FE10EDCFDF91CF911F910F91FF90EF908F
S10B1560DF900895F894FFCF19
S10715680A0A7800EF
S9030000FC
