:100000000C9404090C9421090C9421090C942109E5
:100010000C9421090C9421090C9421090C942109B8
:100020000C9421090C9421090C9421090C942109A8
:100030000C9421090C9421090C947B0B0C9421093C
:100040000C9421090C9421090C94450B0C94210962
:100050000C9421090C9421090C9421090C94210978
:100060000C9421090C9421090000000000000000FC
:100070000080C0E0F0F0F8F8F8FCFCFCFCFCFCFCB4
:10008000FCFCFCF8F8F8F0F0E0C080000000000094
:1000900000000000000000E0F8FEFFFFFFFFFFFF90
:1000A000FF7F1F0F0F0707070707070F0F1F7FFFB0
:1000B000FFFFFFFFFFFFFEF8E00000000000000070
:1000C000FFFFFFFFFFFFFFFFFFFF1F00000000001B
:1000D0000000000000000000808FFFFFFFFFFFFF17
:1000E000FFFFFFFF800000000000FFFFFFFFFFFF9A
:1000F000FFFFFFFF0000000080C0E0E0F0F8FCFC24
:10010000FEFF7F3FFFFFFFFFFFFFFFFFFFFFFF003F
:1001100000000000FFFFFFFFFFFFFFFFFFFFFCFEEF
:10012000FF7F3F1F1F0F0707030100000000FFFFB5
:10013000FFFFFFFFFFFFFFFFFF00000000007FFF4A
:10014000FFFFFFFFFFFFFFFFFD00000000000000BA
:1001500000000000000000F8FFFFFFFFFFFFFFFFAF
:10016000FF7F00000000000000030F3F7FFFFFFF44
:10017000FFFFFFFFFCF8F8F0F0F0F0F0F0F8F8FC0B
:10018000FFFFFFFFFFFFFF7F3F0F030000000000A6
:100190000000000000000000010307070F0F0F1F01
:1001A0001F1F1F1F1F1F1F1F1F0F0F0F07070301F9
:1001B000000000000000000000000000000000003F
:1001C000000000000000000000008080C0C0C0E00F
:1001D000E0E0F0F0F0F80000000000000000000097
:1001E00000000000000000F0F8F8F8FCFCFCFEFE47
:1001F000FEFFFFFFFFFFFFFFFFFFFFFFFFFFFFFF10
:1002000000000000000000000000000000000000EE
:10021000003F1F1F0F0F070707030303010101FF23
:10022000FFFFFFFFFFFFFFFFFFFF000000000000D8
:1002300000000000000000000000000000000000BE
:10024000000000000000000000FFFFFFFFFFFFFFB5
:10025000FFFFFFFF000000000000000000000000A2
:10026000000000000000000000000000000000008E
:10027000000000FFFFFFFFFFFFFFFFFFFFFF000089
:10028000000000000000000000000000000000006E
:1002900000000000000000000000000000FFFFFF61
:1002A000FFFFFFFFFFFFFFFF000000000000000056
:1002B000000000000000000000000000000000003E
:1002C00000000000000000FFFFFFFFFFFFFFFFFF37
:1002D000FFFF000000000000000000000000000020
:1002E000000000000000000000000000000000000E
:1002F000000F0F0F0F0F0F0F0F0F0F0F0000000059
:10030000000000000000000000000000000080C0AD
:10031000C0E0F0F0F0F8F8F8FCFCFCFCFCFCFCFCA5
:10032000FCFCF8F8F8F0F0E0E0C08000000000000D
:1003300000000080E0F8FEFFFFFFFFFFFFFF7F3FB0
:100340001F0F07070707070707070F0F3F7FFFFF6D
:10035000FFFFFFFFFFFFFCF080000000000F0F0F0A
:100360000F0F0F0F0F0F0F0F000000000000000015
:1003700000000000000000C0FFFFFFFFFFFFFFFFC5
:10038000FFFF3F0000000000000000000000000030
:10039000000000000000000000000080C0E0F8FC49
:1003A000FFFFFFFFFFFFFFFF7F1F070100000000AF
:1003B000000000000000000000000000000080C0FD
:1003C000E0F0FCFEFFFFFFFFFFFFFF7F3F1F070383
:1003D000010000000000000000000000000000001C
:1003E00000C0E0F0F8FCFEFFFFFFFFFFFF7F3F1FB4
:1003F0000F070301000000000000000000000000E3
:10040000000000000000F0F8FCFEFFFFFFFFFFFF10
:10041000FFFFFFFFFBF9F8F8F8F8F8F8F8F8F8F83C
:10042000F8F8F8F8F8F8F8F8F8F8F8F8F800000034
:100430000F0F0F0F0F0F0F0F0F0F0F0F0F0F0F0FCC
:100440000F0F0F0F0F0F0F0F0F0F0F0F0F0F0F0FBC
:100450000F0F0F0F0F0F0F000000000000000080B3
:10046000C0E0E0F0F0F8F8F8FCFCFCFCFCFCFCFC64
:10047000FCFCF8F8F8F8F0F0E0E0C08000000000C4
:100480000000000000F0FCFEFFFFFFFFFFFFFFFF8A
:100490003F1F0F07070707070707070F0F1F7FFFFC
:1004A000FFFFFFFFFFFFFFFEF8C000000000030397
:1004B0000303030303030303030000000000000021
:1004C0000000000000000000C0FFFFFFFFFFFFFF73
:1004D000FFFFFF3F000000000000000000000000E0
:1004E00000000000F8F8F8F8F8F8F8F8F8F8FCFC64
:1004F000FEFFFFFFFFFF7F3F1F1F0F0301000000F4
:1005000000000000000000000000000000000F0FCD
:100510000F0F0F0F0F0F0F0F0F1F1F3F7FFFFFFF5B
:10052000FFFFFEFEFCF8F0C000000000E0E0E0E0AD
:10053000E0E0E0E0E0E0E00000000000000000009B
:100540000000000000000081FFFFFFFFFFFFFFFF32
:10055000FFFFFE000000030F3F7FFFFFFFFFFFFFD5
:10056000FFFFFCF8F8F0F0F0F0F0F0F0F0F8F8FC35
:10057000FEFFFFFFFFFFFFFF7F3F1F0700000000A0
:10058000000000000001030307070F0F0F0F1F1FDC
:100590001F1F1F1F1F1F1F1F0F0F0F0F0707030313
:1005A000010000000000000000000000000000004A
:1005B0000000000000000000000000000080C0F00B
:1005C000F8F8F8F8F8F8F8F8F8F8F8000000000083
:1005D000000000000000000000000000000000001B
:1005E000000080C0F0F8FEFFFFFFFFFFFFFFFFFFEE
:1005F000FFFFFFFFFF000000000000000000000000
:100600000000000000000080C0F0FCFEFFFFFFFFC4
:10061000FF7F1F07FFFFFFFFFFFFFFFFFFFFFF0041
:1006200000000000000000000000000080C0F0FC9E
:10063000FEFFFFFFFFFF3F1F070300000000FFFF5B
:10064000FFFFFFFFFFFFFFFFFF00000000000000B3
:100650000080C0F0FCFEFFFFFFFFFFBF9F8781808F
:100660008080808080808080FFFFFFFFFFFFFFFF92
:10067000FFFFFF808080808080800EFFFFFFFFFFF4
:10068000FFFFFFFFFFFFFFFFFFFFFFFFFFFFFFFF7A
:10069000FFFFFFFFFFFFFFFFFFFFFFFFFFFFFFFF6A
:1006A000FFFFFFFF0000000000000000000000004E
:1006B000000000000000000000000000FFFFFFFF3E
:1006C000FFFFFFFFFFFFFF00000000000000000031
:1006D000000000000000000000000000000000001A
:1006E0000000000000000F0F0F0F0F0F0F0F0F0F74
:1006F0000F0000000000000000000000000000F8F3
:10070000F8F8F8F8F8F8F8F8F8F8F8F8F8F8F8F869
:10071000F8F8F8F8F8F8F8F8F8F8F8F8F8F8F80051
:100720000000000000000000FCFFFFFFFFFFFFFFD4
:10073000FFFF0F0F0F0F0F0F0F0F0F0F0F0F0F0FE9
:100740000F0F0F0F0F0F0F0F0F0000000000000022
:1007500000F8FFFFFFFFFFFFFFFFFF070000008023
:100760008080808080808080000000000000000089
:1007700000000000000000000000E0FFFFFFFFFF9E
:10078000FFFFFFFFFFFEFEFFFFFFFFFFFFFFFFFF7B
:10079000FFFFFFFFFFFEFEFCFCF8F0C08000000042
:1007A0000000000001010103030303070703010127
:1007B0000000000000000000000103030F3FFFFFE6
:1007C000FFFFFFFFFFFFFFFCC000000000E0E0E0D4
:1007D000E0E0E0E0E0E0E0C0000000000000000039
:1007E00000000000000000C0FFFFFFFFFFFFFFFF51
:1007F000FFFF1F00000000030F1F7FFFFFFFFFFF31
:10080000FFFFFEFCF8F8F0F0F0F0F0F0F0F8F8FC84
:10081000FFFFFFFFFFFFFFFF7F3F0F030000000010
:100820000000000000000101030707070F0F0F1F62
:100830001F1F1F1F1F1F1F1F1F0F0F0F0707030360
:1008400001000000000000000000000000000000A7
:1008500000000000008080C0E0E0F0F0F0F8F8F860
:10086000F8FCFCFCFCFCFCFC0000000000000000AC
:10087000000000000000000080C0F0F8FCFEFFFF58
:10088000FFFFFFFF7F7F3F1F1F0F0F0F07070707A8
:1008900007070000000000000000000000000080CA
:1008A000F0FEFFFFFFFFFFFFFFFF3F070300008099
:1008B0008080C0C0C0C0C0C0808080000000000038
:1008C0000000000000000000F0FFFFFFFFFFFFFF3F
:1008D000FFFFFFF9FCFEFEFF7F7F7F7F7F7FFFFF33
:1008E000FFFFFFFFFFFFFFFEFCFCF0E080000000C9
:1008F0000000FFFFFFFFFFFFFFFFFFFFFF0F0301F0
:10090000000000000000000000000103071FFFFFBF
:10091000FFFFFFFFFFFFFFFEE0000000077FFFFF7C
:10092000FFFFFFFFFFFFFFE00000000000000000EE
:1009300000000000000000C0FFFFFFFFFFFFFFFFFF
:10094000FFFF3F0000000000030F1F7FFFFFFFFFBE
:10095000FFFFFFFEFCF8F0F0F0F0F0F0F0F8F8FC2C
:10096000FFFFFFFFFFFFFFFF7F1F0F0100000000E1
:100970000000000000000001010307070F0F0F1F18
:100980001F1F1F1F1F1F1F1F1F0F0F0F0707030111
:100990000100000000000000000000000000000056
:1009A0000000000000000000000000000000000047
:1009B0000000000000000000000000000000000037
:1009C0000000000000000000000000000000000027
:1009D0000000000000000000000000000000000017
:1009E0000000000000000000000000000000000007
:1009F00000000000000000000000000000000000F7
:100A000000000000000000000000000000000000E6
:100A1000000000000000000000F0F0F0F0F0F0F046
:100A2000F0F0F0F0F0F0F0F0F0F0F0F0F0F0F0F0C6
:100A3000F0F0F0F0F0F0F0F0F0F0F0F0F000000086
:100A40000000000F0F0F0F0F0F0F0F0F0F0F0F0FE3
:100A50000F0F0F0F0F0F0F0F0F0F0F0F0F0F0F0FA6
:100A60000F0F0F0F0F0F0F0000000000000000001D
:100A70000000000000000000000000000000000076
:100A80000000000000000000000000000000000066
:100A90000000000000000000000000000000000056
:100AA0000000000000000000000000000000000046
:100AB0000000000000000000000000000000000036
:100AC0000000000000000000000000000000000026
:100AD0000000000000000000000000000000000016
:100AE0000000000000000000000000000000000006
:100AF00000005F0000000000000007000700000089
:100B000000147F147F14000000242A7F2A120000A2
:100B1000002313086462000000364955225000008B
:100B20000000050300000000001C2241000000003E
:100B30000041221C0000000000082A1C2A080000B6
:100B40000008083E0808000000A060000000000047
:100B500000080808080800000060600000000000AD
:100B60000020100804020000003E5149453E0000EC
:100B70000000427F400000000062514949460000E9
:100B80000022414949360000001814127F1000006D
:100B90000027454545390000003C4A4949300000DE
:100BA000000171090503000000364949493600007B
:100BB00000064949291E00000000363600000000EA
:100BC0000000AC6C0000000000081422410000008E
:100BD0000014141414140000004122140800000032
:100BE000000201510906000000324979413E00002F
:100BF000007E0909097E0000007F4949493600004E
:100C0000003E414141220000007F4141221C000082
:100C1000007F494949410000007F0909090100009E
:100C2000003E414151720000007F0808087F00002B
:100C300000417F4100000000002040413F010000D2
:100C4000007F081422410000007F40404040000027
:100C5000007F020C027F0000007F0408107F00006C
:100C6000003E4141413E0000007F090909060000A5
:100C7000003E4151215E0000007F09192946000015
:100C800000264949493200000001017F01010000AE
:100C9000003F4040403F0000001F2040201F000058
:100CA000003F4038403F0000006314081463000018
:100CB000000304780403000000615149454300002B
:100CC000007F4141000000000002040810200000E5
:100CD0000041417F00000000000402010204000006
:100CE000008080808080000000010204000000007D
:100CF0000020545454780000007F484444380000D9
:100D0000003844442800000000384444487F000074
:100D1000003854545418000000087E0902000000F6
:100D20000018A4A4A47C0000007F0804047800003C
:100D300000007D00000000000080847D00000000B5
:100D4000007F10284400000000417F4000000000A8
:100D5000007C041804780000007C08047C0000007B
:100D6000003844443800000000FC2424180000002F
:100D700000182424FC00000000007C08040000008F
:100D8000004854542400000000047F440000000088
:100D9000003C40407C000000001C2040201C000063
:100DA000003C4030403C0000004428102844000033
:100DB000001CA0A07C000000004464544C440000CF
:100DC000000836410000000000007F000000000025
:100DD000004136080000000000020101020100008D
:100DE0000002050502000000000000C0E0F0F0F085
:100DF000F0F0F0F0F0F0F0F0F0F0F0E0C000000003
:100E0000000000FFFFFFFF010000000000000000E5
:100E100001FFFFFFFF000000000000FFFFFFFF8059
:100E2000000000000000000080FFFFFFFF00000046
:100E300000000003070F0F0F0F0F0F0F0F0F0F0F03
:100E40000F0F0F070300000000000000000000006B
:100E5000000000000000E0F0F0E0000000000000F2
:100E60000000000000000000000000000000FFFF84
:100E7000FFFF000000000000000000000000000074
:100E8000000000000000FFFFFFFF00000000000066
:100E90000000000000000000000000000000030748
:100EA0000703000000000000000000E0F0F0F0F098
:100EB000F0F0F0F0F0F0F0F0F0F0F0E00000000002
:100EC00000000081C1C0C0C0C0C0C0C0C0C0C0E17F
:100ED000FFFFFFFF00000000000000FFFFFFFF8793
:100EE00003030303030303030303838100000000E0
:100EF000000000070F0F0F0F0F0F0F0F0F0F0F0F37
:100F00000F0F0F0700000000000000E0F0F0F0F00D
:100F1000F0F0F0F0F0F0F0F0F0F0F0E000000000A1
:100F200000000081C1C0C0C0C0C0C0C0C0C0C0E11E
:100F3000FFFFFF7F00000000000000818303030328
:100F40000303030303030387FFFFFFFE000000000A
:100F5000000000070F0F0F0F0F0F0F0F0F0F0F0FD6
:100F60000F0F0F0700000000000000E0F0F0F0306D
:100F70000000000000000030F0F0F0E00000000091
:100F8000000000FFFFFFFFE0C0C0C0C0C0C0C0E065
:100F9000FFFFFFFF00000000000000010303030348
:100FA0000303030303030307FFFFFFFF0000000029
:100FB0000000000000000000000000000000000C25
:100FC0000F0F0F0700000000000000E0F0F0F0F04D
:100FD000F0F0F0F0F0F0F0F0F0F0F0E000000000E1
:100FE000000000FFFFFFFFE1C0C0C0C0C0C0C0C024
:100FF000C0C0C18100000000000000818303030322
:101000000303030303030387FFFFFFFF0000000048
:10101000000000070F0F0F0F0F0F0F0F0F0F0F0F15
:101020000F0F0F0700000000000000E0F0F0F0F0EC
:10103000F0F0F0F0F0F0F0F0F0F0F0E00000000080
:10104000000000FFFFFFFFE1C0C0C0C0C0C0C0C0C3
:10105000C0C0C18100000000000000FFFFFFFF874B
:101060000303030303030387FFFFFFFF00000000E8
:10107000000000070F0F0F0F0F0F0F0F0F0F0F0FB5
:101080000F0F0F0700000000000000E0F0F0F0F08C
:10109000F0F0F0F0F0F0F0F0F0F0F0E00000000020
:1010A000000000010100000000000000000000013D
:1010B000FFFFFFFF00000000000000000000000034
:1010C0000000000000000000FFFFFFFF0000000024
:1010D0000000000000000000000000000000000C04
:1010E0000F0F0F0700000000000000E0F0F0F0F02C
:1010F000F0F0F0F0F0F0F0F0F0F0F0E000000000C0
:101100000000007FFFFFFFE1C0C0C0C0C0C0C0E161
:10111000FFFFFF3F00000000000000FEFFFFFF8711
:101120000303030303030387FFFFFFFE0000000028
:10113000000000070F0F0F0F0F0F0F0F0F0F0F0FF4
:101140000F0F0F0700000000000000E0F0F0F0F0CB
:10115000F0F0F0F0F0F0F0F0F0F0F0E0000000005F
:10116000000000FFFFFFFFE1C0C0C0C0C0C0C0E181
:10117000FFFFFFFF00000000000000010303030366
:101180000303030303030307FFFFFFFF0000000047
:101190000000000000000000000000000000000C43
:1011A0000F0F0F070000000000000000000000000B
:1011B000000000000000000000000000000000002F
:1011C0000000000000000000003C7E7E7E7E3C00AF
:1011D000000000000000000000000000000000000F
:1011E00000F0F8F8F8F8F00000000000000000003F
:1011F00000000000000000000000010101010000EB
:10120000000000000000000011241FBECFEFD8E056
:10121000DEBFCDBF11E0A0E0B1E0E4EBFBE102C036
:1012200005900D92A433B107D9F725E0A4E3B1E00E
:1012300001C01D92AF33B207E1F70E94D90A0C94A6
:10124000D80D0C94000082E18093B800E9EBF0E047
:1012500080818C7F808385E08093BC00089594EA30
:101260009093BC00ECEBF0E090819923ECF7909127
:10127000B900987F983099F48093BB0084E88093FC
:10128000BC00ECEBF0E080818823ECF78091B900A2
:10129000887F883131F0803231F083E0089580E03A
:1012A000089581E0089582E008958093BB0084E86A
:1012B0008093BC00ECEBF0E080818823ECF7809118
:1012C000B900887F883221F0803321F082E00895D0
:1012D00080E0089581E0089584E98093BC00ECEB00
:1012E000F0E0808184FDFDCF0895539A569A5B9873
:1012F0005E98219A2998089582E084BD85E085BD95
:101300008CE987BDEEE6F0E08081826080830895FD
:101310000E9423098FE295E70197F1F700C00000D2
:101320000E94430C0E94DC0C089587B18C6087B941
:1013300088B1837F88B9519A5098589A1092C50005
:101340008BE98093C400E1ECF0E0808188608083C9
:10135000808180618083808180688083E2ECF0E01E
:10136000808186608083E0ECF0E080818260808311
:101370000895CF93DF9300D000D000D0CDB7DEB773
:10138000BE016F5F7F4F89E391E00E94090CBE01AF
:101390006D5F7F4F89E391E00E94090C898181FD97
:1013A00004C082E08093000120C080FD04C081E081
:1013B000809300011AC082FD04C083E08093000185
:1013C00014C083FD04C084E0809300010EC084FD3E
:1013D00004C085E08093000108C085FD04C086E05C
:1013E0008093000102C0109200018B8181FD04C036
:1013F00082E08093010120C080FD04C081E08093E1
:1014000001011AC082FD04C083E08093010114C071
:1014100083FD04C084E0809301010EC084FD04C0FC
:1014200085E08093010108C085FD04C086E08093BB
:10143000010102C010920101BE016B5F7F4F89E381
:1014400091E00E94090C26960FB6F894DEBF0FBEFD
:10145000CDBFDF91CF91089580910001823011F4CA
:101460005E9A08955E9880910101823011F45B9A32
:1014700008955B9808958091000140E050E060E09D
:1014800070E090E00E94730D8091010146E050E011
:1014900060E070E090E00E94EF0C0895CF93DF933E
:1014A00000D000D000D0CDB7DEB7BE016F5F7F4F58
:1014B00089E391E00E94090CBE016D5F7F4F89E3D3
:1014C00091E00E94090CBE016B5F7F4F89E391E0C0
:1014D0000E94090C898181FF04C080E090E00E9495
:1014E0009E0B26960FB6F894DEBF0FBECDBFDF91E0
:1014F000CF9108950F931F93CF93DF9300D000D027
:10150000CDB7DEB7BE016F5F7F4F89E391E00E94E8
:10151000090CBE016D5F7F4F89E391E00E94090CC9
:10152000898181FD06C08B819C818136910561F5A1
:1015300037C00E94B10C0E94DC0C60E080E00E9489
:10154000C50C8B819C818136910549F41AC01F30EE
:1015500040F00F5F60E0802F0E94C50C02C010E0D9
:1015600000E0BE016D5F7F4F89E391E00E94090CAE
:101570008B810E94AB0D1F5F8B819C818136910511
:1015800031F70E94AD0C0CC0BE016D5F7F4F89E347
:1015900091E00E94090C8B819C8181369105A1F715
:1015A0000F900F900F900F90DF91CF911F910F919F
:1015B0000895CF93DF9300D0CDB7DEB70E9488099E
:1015C0000E943B0A0E9475090E9495090E947C09AD
:1015D000789412E08091340181112CC08091360101
:1015E0008823B1F12998BE016F5F7F4F89E391E0B5
:1015F0000E94090C89819A818134910581F024F43B
:101600000197029728F010C08634910559F00CC05C
:101610000E94B9090E943B0A0E942C0A05C00E9440
:101620004E0A02C00E947A0A80913601815080934E
:1016300036010EC05E985B9885B1812785B92FE38E
:101640003EE785E0215030408040E1F700C00000D7
:1016500080913501882379F0F89490E48BB1892743
:101660008BB92FEF3EE984E2215030408040E1F712
:1016700000C00000F3CF9FE729EA33E091502040FB
:101680003040E1F700C00000A5CF1F920F920FB6C7
:101690000F9211242F933F934F935F936F937F93F8
:1016A0008F939F93AF93BF93EF93FF931092340167
:1016B00010923801109237016091C600613629F40A
:1016C000809136018F5F8093360170E089E391E06D
:1016D0000E94E50BFF91EF91BF91AF919F918F9188
:1016E0007F916F915F914F913F912F910F900FBE1E
:1016F0000F901F9018951F920F920FB60F92112402
:101700002F938F939F938091370190913801019689
:1017100090933801809337018132934038F081E013
:101720008093340110923801109237019F918F916C
:101730002F910F900FBE0F901F901895CF93DF93AE
:10174000EC010E94B10C0E94DC0CC130D10571F09B
:10175000C330D105A1F0CD2BD9F465E081E00E9422
:10176000C50C83E091E00E94470D1AC063E081E060
:101770000E94C50C89E091E00E94470D11C062E013
:1017800081E00E94C50C85E191E00E94470D08C0F0
:1017900064E081E00E94C50C80E291E00E94470D68
:1017A00067E083E00E94C50C8AE291E00E94470D49
:1017B00065E085E00E94C50C8DE291E00E94470D36
:1017C0000E94AD0CDF91CF910895FC018481958139
:1017D000811522E092071CF08FEF9FEF089501968C
:1017E0009583848322813381D9011396AA0FBB1F6D
:1017F000AE0FBF1F6D937C932F5F3F4F3178332324
:101800002CF4215031093E6F2F5F3F4F33832283E9
:101810000895FC0184819581892B11F1A081B1810A
:101820001396AA0FBB1FAE0FBF1F8D919C91DB01BA
:101830008D939C93208131812F5F3F4F31783323EB
:101840002CF4215031093E6F2F5F3F4F31832083AD
:101850008481958101979583848380E090E0089549
:101860008FEF9FEF0895CF93C82F809102010E94C0
:101870002F0980E00E9455098C2F0E9455090E9473
:101880006C09CF9108955C9A549A2FEF36E781E066
:10189000215030408040E1F700C000009BB180E162
:1018A00098279BB99FEF26E731E0915020403040C8
:1018B000E1F700C000009BB189278BB98FEF96E755
:1018C00021E0815090402040E1F700C000008EEA06
:1018D0000E94330C85ED0E94330C80E80E94330C8B
:1018E00088EA0E94330C8FE30E94330C83ED0E9440
:1018F000330C80E00E94330C80E40E94330C8DE8AE
:101900000E94330C84E10E94330C81EA0E94330C64
:1019100088EC0E94330C8AED0E94330C82E10E9415
:10192000330C81E80E94330C8FEC0E94330C89ED5C
:101930000E94330C81EF0E94330C8BED0E94330C1C
:1019400080E40E94330C84EA0E94330C86EA0E94F1
:10195000330C8FEA0E94330C08958FEA0E94330CF7
:1019600008958EEA0E94330C0895CF93C82F80917A
:1019700002010E942F0980E40E9455098C2F0E94C9
:1019800055090E946C09CF910895CF93C62F8055B9
:101990000E94330C8C2F880F880F880F88708E5F01
:1019A0000E94330C8C2F90E0969587958F70805F06
:1019B0000E94330CCF910895CF93DF93D0E060E085
:1019C0008D2F0E94C50CC1E880E00E94B50CC1506B
:1019D000D9F7DF5FD83099F7DF91CF9108957F92E3
:1019E0008F929F92AF92BF92CF92DF92EF92FF922F
:1019F0000F931F93CF93DF937C014B01742E642FC1
:101A0000882D0E94C50CC8EAD1E10F2EF8E0CF2E38
:101A1000F2E1DF2EF02D80E68E9D50018F9DB00CFF
:101A2000112400E010E080ECA81A83E0B80AEAE094
:101A3000EE16F1042CF0FE0184910E94B50C06C054
:101A4000F501EC0FFD1F84910E94B50C07311105C3
:101A500051F4FFEF8F1A9F0A672D882D0E94C50C45
:101A600000E010E002C00F5F1F4F2196CC15DD058E
:101A7000F1F6DF91CF911F910F91FF90EF90DF90E2
:101A8000CF90BF90AF909F908F907F9008950F93CD
:101A90001F93CF93DF938C01DC018C9181111BC0CC
:101AA0001DC0D801EC91F0E0EE0FFF1FEE0FFF1FFD
:101AB000EE0FFF1FE851F64FEC0FFD1F84910E94BF
:101AC000B50C2196C830D10561F70F5F1F4FF801A3
:101AD0008081882319F0C0E0D0E0E3CFDF91CF917F
:101AE0001F910F910895DF92EF92FF920F931F9332
:101AF000CF93DF93D42E8730910514F087E090E0E8
:101B0000F62E20E531E0829FE001839FD00D929F69
:101B1000D00D1124C859DF4F6894EE24E3F8E60E87
:101B20006D2D8F2D0E94C50C8E01065D1F4FFE018D
:101B300084910E94B50C2196C017D107C1F7F39488
:101B4000E801FE10EDCFDF91CF911F910F91FF9033
:101B5000EF90DF9008950F931F93CF93DF93082F9B
:101B6000809102010E942F0980E40E94550910E033
:101B7000E801CC0FDD1FCC0FDD1FCC0FDD1FC851DE
:101B8000D64F000F111F000F111F000F111F005122
:101B9000164FFE0184910E9455092196C017D10766
:101BA000C1F70E946C09DF91CF911F910F910895A9
:041BB000F894FFCFD7
:101BB4000A0A78424C494B41004E455A414F53540E
:101BC40052554A4500505249424C495A554A4500DB
:101BD4004E4546554E47554A45005449004B414DE4
:041BE4004552410025
:00000001FF
