S00B00006376312E737265630F
S11300000C9484070C94A1070C94A1070C94A107E9
S11300100C94A1070C94A1070C94A1070C94A107BC
S11300200C94A1070C94A1070C94A1070C94A107AC
S11300300C94A1070C94A1070C945F080C94A107DD
S11300400C94A1070C94A1070C9423080C94A10709
S11300500C94A1070C94A1070C94A1070C94A1077C
S11300600C94A1070C94A1070000000000000000FC
S11300700080C0E0F0F0F8F8F8FCFCFCFCFCFCFCB0
S1130080FCFCFCF8F8F8F0F0E0C080000000000090
S113009000000000000000E0F8FEFFFFFFFFFFFF8C
S11300A0FF7F1F0F0F0707070707070F0F1F7FFFAC
S11300B0FFFFFFFFFFFFFEF8E0000000000000006C
S11300C0FFFFFFFFFFFFFFFFFFFF1F000000000017
S11300D00000000000000000808FFFFFFFFFFFFF13
S11300E0FFFFFFFF800000000000FFFFFFFFFFFF96
S11300F0FFFFFFFF0000000080C0E0E0F0F8FCFC20
S1130100FEFF7F3FFFFFFFFFFFFFFFFFFFFFFF003B
S113011000000000FFFFFFFFFFFFFFFFFFFFFCFEEB
S1130120FF7F3F1F1F0F0707030100000000FFFFB1
S1130130FFFFFFFFFFFFFFFFFF00000000007FFF46
S1130140FFFFFFFFFFFFFFFFFD00000000000000B6
S113015000000000000000F8FFFFFFFFFFFFFFFFAB
S1130160FF7F00000000000000030F3F7FFFFFFF40
S1130170FFFFFFFFFCF8F8F0F0F0F0F0F0F8F8FC07
S1130180FFFFFFFFFFFFFF7F3F0F030000000000A2
S11301900000000000000000010307070F0F0F1FFD
S11301A01F1F1F1F1F1F1F1F1F0F0F0F07070301F5
S11301B0000000000000000000000000000000003B
S11301C0000000000000000000008080C0C0C0E00B
S11301D0E0E0F0F0F0F80000000000000000000093
S11301E000000000000000F0F8F8F8FCFCFCFEFE43
S11301F0FEFFFFFFFFFFFFFFFFFFFFFFFFFFFFFF0C
S113020000000000000000000000000000000000EA
S1130210003F1F1F0F0F070707030303010101FF1F
S1130220FFFFFFFFFFFFFFFFFFFF000000000000D4
S113023000000000000000000000000000000000BA
S1130240000000000000000000FFFFFFFFFFFFFFB1
S1130250FFFFFFFF0000000000000000000000009E
S1130260000000000000000000000000000000008A
S1130270000000FFFFFFFFFFFFFFFFFFFFFF000085
S1130280000000000000000000000000000000006A
S113029000000000000000000000000000FFFFFF5D
S11302A0FFFFFFFFFFFFFFFF000000000000000052
S11302B0000000000000000000000000000000003A
S11302C000000000000000FFFFFFFFFFFFFFFFFF33
S11302D0FFFF00000000000000000000000000001C
S11302E0000000000000000000000000000000000A
S11302F0000F0F0F0F0F0F0F0F0F0F0F0000000055
S1130300000000000000000000000000000080C0A9
S1130310C0E0F0F0F0F8F8F8FCFCFCFCFCFCFCFCA1
S1130320FCFCF8F8F8F0F0E0E0C080000000000009
S113033000000080E0F8FEFFFFFFFFFFFFFF7F3FAC
S11303401F0F07070707070707070F0F3F7FFFFF69
S1130350FFFFFFFFFFFFFCF080000000000F0F0F06
S11303600F0F0F0F0F0F0F0F000000000000000011
S113037000000000000000C0FFFFFFFFFFFFFFFFC1
S1130380FFFF3F000000000000000000000000002C
S1130390000000000000000000000080C0E0F8FC45
S11303A0FFFFFFFFFFFFFFFF7F1F070100000000AB
S11303B0000000000000000000000000000080C0F9
S11303C0E0F0FCFEFFFFFFFFFFFFFF7F3F1F07037F
S11303D00100000000000000000000000000000018
S11303E000C0E0F0F8FCFEFFFFFFFFFFFF7F3F1FB0
S11303F00F070301000000000000000000000000DF
S1130400000000000000F0F8FCFEFFFFFFFFFFFF0C
S1130410FFFFFFFFFBF9F8F8F8F8F8F8F8F8F8F838
S1130420F8F8F8F8F8F8F8F8F8F8F8F8F800000030
S11304300F0F0F0F0F0F0F0F0F0F0F0F0F0F0F0FC8
S11304400F0F0F0F0F0F0F0F0F0F0F0F0F0F0F0FB8
S11304500F0F0F0F0F0F0F000000000000000080AF
S1130460C0E0E0F0F0F8F8F8FCFCFCFCFCFCFCFC60
S1130470FCFCF8F8F8F8F0F0E0E0C08000000000C0
S11304800000000000F0FCFEFFFFFFFFFFFFFFFF86
S11304903F1F0F07070707070707070F0F1F7FFFF8
S11304A0FFFFFFFFFFFFFFFEF8C000000000030393
S11304B0030303030303030303000000000000001D
S11304C00000000000000000C0FFFFFFFFFFFFFF6F
S11304D0FFFFFF3F000000000000000000000000DC
S11304E000000000F8F8F8F8F8F8F8F8F8F8FCFC60
S11304F0FEFFFFFFFFFF7F3F1F1F0F0301000000F0
S113050000000000000000000000000000000F0FC9
S11305100F0F0F0F0F0F0F0F0F1F1F3F7FFFFFFF57
S1130520FFFFFEFEFCF8F0C000000000E0E0E0E0A9
S1130530E0E0E0E0E0E0E000000000000000000097
S11305400000000000000081FFFFFFFFFFFFFFFF2E
S1130550FFFFFE000000030F3F7FFFFFFFFFFFFFD1
S1130560FFFFFCF8F8F0F0F0F0F0F0F0F0F8F8FC31
S1130570FEFFFFFFFFFFFFFF7F3F1F07000000009C
S1130580000000000001030307070F0F0F0F1F1FD8
S11305901F1F1F1F1F1F1F1F0F0F0F0F070703030F
S11305A00100000000000000000000000000000046
S11305B00000000000000000000000000080C0F007
S11305C0F8F8F8F8F8F8F8F8F8F8F800000000007F
S11305D00000000000000000000000000000000017
S11305E0000080C0F0F8FEFFFFFFFFFFFFFFFFFFEA
S11305F0FFFFFFFFFF0000000000000000000000FC
S11306000000000000000080C0F0FCFEFFFFFFFFC0
S1130610FF7F1F07FFFFFFFFFFFFFFFFFFFFFF003D
S113062000000000000000000000000080C0F0FC9A
S1130630FEFFFFFFFFFF3F1F070300000000FFFF57
S1130640FFFFFFFFFFFFFFFFFF00000000000000AF
S11306500080C0F0FCFEFFFFFFFFFFBF9F8781808B
S11306608080808080808080FFFFFFFFFFFFFFFF8E
S1130670FFFFFF808080808080800EFFFFFFFFFFF0
S1130680FFFFFFFFFFFFFFFFFFFFFFFFFFFFFFFF76
S1130690FFFFFFFFFFFFFFFFFFFFFFFFFFFFFFFF66
S11306A0FFFFFFFF0000000000000000000000004A
S11306B0000000000000000000000000FFFFFFFF3A
S11306C0FFFFFFFFFFFFFF0000000000000000002D
S11306D00000000000000000000000000000000016
S11306E00000000000000F0F0F0F0F0F0F0F0F0F70
S11306F00F0000000000000000000000000000F8EF
S1130700F8F8F8F8F8F8F8F8F8F8F8F8F8F8F8F865
S1130710F8F8F8F8F8F8F8F8F8F8F8F8F8F8F8004D
S11307200000000000000000FCFFFFFFFFFFFFFFD0
S1130730FFFF0F0F0F0F0F0F0F0F0F0F0F0F0F0FE5
S11307400F0F0F0F0F0F0F0F0F000000000000001E
S113075000F8FFFFFFFFFFFFFFFFFF07000000801F
S11307608080808080808080000000000000000085
S113077000000000000000000000E0FFFFFFFFFF9A
S1130780FFFFFFFFFFFEFEFFFFFFFFFFFFFFFFFF77
S1130790FFFFFFFFFFFEFEFCFCF8F0C0800000003E
S11307A00000000001010103030303070703010123
S11307B00000000000000000000103030F3FFFFFE2
S11307C0FFFFFFFFFFFFFFFCC000000000E0E0E0D0
S11307D0E0E0E0E0E0E0E0C0000000000000000035
S11307E000000000000000C0FFFFFFFFFFFFFFFF4D
S11307F0FFFF1F00000000030F1F7FFFFFFFFFFF2D
S1130800FFFFFEFCF8F8F0F0F0F0F0F0F0F8F8FC80
S1130810FFFFFFFFFFFFFFFF7F3F0F03000000000C
S11308200000000000000101030707070F0F0F1F5E
S11308301F1F1F1F1F1F1F1F1F0F0F0F070703035C
S113084001000000000000000000000000000000A3
S113085000000000008080C0E0E0F0F0F0F8F8F85C
S1130860F8FCFCFCFCFCFCFC0000000000000000A8
S1130870000000000000000080C0F0F8FCFEFFFF54
S1130880FFFFFFFF7F7F3F1F1F0F0F0F07070707A4
S113089007070000000000000000000000000080C6
S11308A0F0FEFFFFFFFFFFFFFFFF3F070300008095
S11308B08080C0C0C0C0C0C0808080000000000034
S11308C00000000000000000F0FFFFFFFFFFFFFF3B
S11308D0FFFFFFF9FCFEFEFF7F7F7F7F7F7FFFFF2F
S11308E0FFFFFFFFFFFFFFFEFCFCF0E080000000C5
S11308F00000FFFFFFFFFFFFFFFFFFFFFF0F0301EC
S1130900000000000000000000000103071FFFFFBB
S1130910FFFFFFFFFFFFFFFEE0000000077FFFFF78
S1130920FFFFFFFFFFFFFFE00000000000000000EA
S113093000000000000000C0FFFFFFFFFFFFFFFFFB
S1130940FFFF3F0000000000030F1F7FFFFFFFFFBA
S1130950FFFFFFFEFCF8F0F0F0F0F0F0F0F8F8FC28
S1130960FFFFFFFFFFFFFFFF7F1F0F0100000000DD
S11309700000000000000001010307070F0F0F1F14
S11309801F1F1F1F1F1F1F1F1F0F0F0F070703010D
S11309900100000000000000000000000000000052
S11309A00000000000000000000000000000000043
S11309B00000000000000000000000000000000033
S11309C00000000000000000000000000000000023
S11309D00000000000000000000000000000000013
S11309E00000000000000000000000000000000003
S11309F000000000000000000000000000000000F3
S1130A0000000000000000000000000000000000E2
S1130A10000000000000000000F0F0F0F0F0F0F042
S1130A20F0F0F0F0F0F0F0F0F0F0F0F0F0F0F0F0C2
S1130A30F0F0F0F0F0F0F0F0F0F0F0F0F000000082
S1130A400000000F0F0F0F0F0F0F0F0F0F0F0F0FDF
S1130A500F0F0F0F0F0F0F0F0F0F0F0F0F0F0F0FA2
S1130A600F0F0F0F0F0F0F00000000000000000019
S1130A700000000000000000000000000000000072
S1130A800000000000000000000000000000000062
S1130A900000000000000000000000000000000052
S1130AA00000000000000000000000000000000042
S1130AB00000000000000000000000000000000032
S1130AC00000000000000000000000000000000022
S1130AD00000000000000000000000000000000012
S1130AE00000000000000000000000C0E0F0F0F092
S1130AF0F0F0F0F0F0F0F0F0F0F0F0E0C000000002
S1130B00000000FFFFFFFF010000000000000000E4
S1130B1001FFFFFFFF000000000000FFFFFFFF8058
S1130B20000000000000000080FFFFFFFF00000045
S1130B3000000003070F0F0F0F0F0F0F0F0F0F0F02
S1130B400F0F0F070300000000000000000000006A
S1130B50000000000000E0F0F0E0000000000000F1
S1130B600000000000000000000000000000FFFF83
S1130B70FFFF000000000000000000000000000073
S1130B80000000000000FFFFFFFF00000000000065
S1130B900000000000000000000000000000030747
S1130BA00703000000000000000000E0F0F0F0F097
S1130BB0F0F0F0F0F0F0F0F0F0F0F0E00000000001
S1130BC000000081C1C0C0C0C0C0C0C0C0C0C0E17E
S1130BD0FFFFFFFF00000000000000FFFFFFFF8792
S1130BE003030303030303030303838100000000DF
S1130BF0000000070F0F0F0F0F0F0F0F0F0F0F0F36
S1130C000F0F0F0700000000000000E0F0F0F0F00C
S1130C10F0F0F0F0F0F0F0F0F0F0F0E000000000A0
S1130C2000000081C1C0C0C0C0C0C0C0C0C0C0E11D
S1130C30FFFFFF7F00000000000000818303030327
S1130C400303030303030387FFFFFFFE0000000009
S1130C50000000070F0F0F0F0F0F0F0F0F0F0F0FD5
S1130C600F0F0F0700000000000000E0F0F0F0306C
S1130C700000000000000030F0F0F0E00000000090
S1130C80000000FFFFFFFFE0C0C0C0C0C0C0C0E064
S1130C90FFFFFFFF00000000000000010303030347
S1130CA00303030303030307FFFFFFFF0000000028
S1130CB00000000000000000000000000000000C24
S1130CC00F0F0F0700000000000000E0F0F0F0F04C
S1130CD0F0F0F0F0F0F0F0F0F0F0F0E000000000E0
S1130CE0000000FFFFFFFFE1C0C0C0C0C0C0C0C023
S1130CF0C0C0C18100000000000000818303030321
S1130D000303030303030387FFFFFFFF0000000047
S1130D10000000070F0F0F0F0F0F0F0F0F0F0F0F14
S1130D200F0F0F0700000000000000E0F0F0F0F0EB
S1130D30F0F0F0F0F0F0F0F0F0F0F0E0000000007F
S1130D40000000FFFFFFFFE1C0C0C0C0C0C0C0C0C2
S1130D50C0C0C18100000000000000FFFFFFFF874A
S1130D600303030303030387FFFFFFFF00000000E7
S1130D70000000070F0F0F0F0F0F0F0F0F0F0F0FB4
S1130D800F0F0F0700000000000000E0F0F0F0F08B
S1130D90F0F0F0F0F0F0F0F0F0F0F0E0000000001F
S1130DA0000000010100000000000000000000013C
S1130DB0FFFFFFFF00000000000000000000000033
S1130DC00000000000000000FFFFFFFF0000000023
S1130DD00000000000000000000000000000000C03
S1130DE00F0F0F0700000000000000E0F0F0F0F02B
S1130DF0F0F0F0F0F0F0F0F0F0F0F0E000000000BF
S1130E000000007FFFFFFFE1C0C0C0C0C0C0C0E160
S1130E10FFFFFF3F00000000000000FEFFFFFF8710
S1130E200303030303030387FFFFFFFE0000000027
S1130E30000000070F0F0F0F0F0F0F0F0F0F0F0FF3
S1130E400F0F0F0700000000000000E0F0F0F0F0CA
S1130E50F0F0F0F0F0F0F0F0F0F0F0E0000000005E
S1130E60000000FFFFFFFFE1C0C0C0C0C0C0C0E180
S1130E70FFFFFFFF00000000000000010303030365
S1130E800303030303030307FFFFFFFF0000000046
S1130E900000000000000000000000000000000C42
S1130EA00F0F0F070000000000000000000000000A
S1130EB0000000000000000000000000000000002E
S1130EC00000000000000000003C7E7E7E7E3C00AE
S1130ED0000000000000000000000000000000000E
S1130EE000F0F8F8F8F8F00000000000000000003E
S1130EF000000000000000000000010101010000EA
S1130F00000000000000000011241FBECFEFD8E055
S1130F10DEBFCDBF11E0A0E0B1E0EAE8F3E102C03A
S1130F2005900D92A230B107D9F725E0A2E0B1E017
S1130F3001C01D92A331B207E1F70E94F5070C949A
S1130F40C3090C94000082E18093B800E9EBF0E05F
S1130F5080818C7F808385E08093BC00089594EA2F
S1130F609093BC00ECEBF0E090819923ECF7909126
S1130F70B900987F983099F48093BB0084E88093FB
S1130F80BC00ECEBF0E080818823ECF78091B900A1
S1130F90887F883131F0803231F083E0089580E039
S1130FA0089581E0089582E008958093BB0084E869
S1130FB08093BC00ECEBF0E080818823ECF7809117
S1130FC0B900887F883221F0803321F082E00895CF
S1130FD080E0089581E0089584E98093BC00ECEBFF
S1130FE0F0E0808184FDFDCF08950E94A3078FE285
S1130FF095E70197F1F700C000000E9492080E9453
S1131000230900E010E0C0E0D0E040E050E060E000
S113101070E0CE010E948E099FE729EA83E0915097
S113102020408040E1F700C000002196C830D1057F
S113103061F74DE050E060E070E0C8010E943609BD
S11310400F5F1F4FE0CF1F920F920FB60F92112424
S11310502F938F939F93EF93FF931092020110921B
S11310600805109207058091030181111EC080912B
S11310700501909106012091C600FC01E75FFA4F3B
S11310802083213641F481E080930301109206010C
S1131090109205010AC00196909306018093050100
S11310A00A971CF081E080930401FF91EF919F91D6
S11310B08F912F910F900FBE0F901F9018951F9234
S11310C00F920FB60F9211242F938F939F938091B9
S11310D007059091080501969093080580930705EC
S11310E08132934038F081E0809302011092080528
S11310F0109207059F918F912F910F900FBE0F9023
S11311001F901895CF93C82F809100010E94AF07BC
S113111080E00E94D5078C2F0E94D5070E94EC071F
S1131120CF9108955C9A549A2FEF36E781E02150CD
S113113030408040E1F700C000009BB180E1982777
S11311409BB99FEF26E731E0915020403040E1F712
S113115000C000009BB189278BB98FEF96E721E08F
S1131160815090402040E1F700C000008EEA0E94C8
S1131170820885ED0E94820880E80E94820888EA3D
S11311800E9482088FE30E94820883ED0E948208F5
S113119080E00E94820880E40E9482088DE80E9418
S11311A0820884E10E94820881EA0E94820888EC15
S11311B00E9482088AED0E94820882E10E948208CD
S11311C081E80E9482088FEC0E94820889ED0E94C7
S11311D0820881EF0E9482088BED0E94820880E4DD
S11311E00E94820884EA0E94820886EA0E94820899
S11311F08FEA0E9482080895CF93C82F809100013E
S11312000E94AF0780E40E94D5078C2F0E94D50767
S11312100E94EC07CF910895CF93C62F80550E946A
S113122082088C2F880F880F880F88708E5F0E9429
S113123082088C2F90E0969587958F70805F0E942E
S11312408208CF910895CF93DF93D0E060E08D2F93
S11312500E940C09C1E880E00E94FC08C150D9F743
S1131260DF5FD83099F7DF91CF9108957F928F9205
S11312709F92AF92BF92CF92DF92EF92FF920F9321
S11312801F93CF93DF937C014B01742E642F882D21
S11312900E940C09C8EADEE00F2EF8E0CF2EFFE032
S11312A0DF2EF02D80E68E9D50018F9DB00C112411
S11312B000E010E080ECA81A83E0B80AEAE0EE1639
S11312C0F1042CF0FE0184910E94FC0806C0F50193
S11312D0EC0FFD1F84910E94FC080731110551F4A5
S11312E0FFEF8F1A9F0A672D882D0E940C0900E0DA
S11312F010E002C00F5F1F4F2196CC15DD05F1F6FB
S1131300DF91CF911F910F91FF90EF90DF90CF90DD
S1131310BF90AF909F908F907F900895DF92EF924F
S1131320FF920F931F93CF93DF93D42EF62E20E5D5
S113133031E0AC01429FC001439F900D529F900D3C
S11313401124EC01C859DF4F6894EE24E3F8E60E4B
S11313506D2D8F2D0E940C098E01065D1F4FFE011D
S113136084910E94FC082196C017D107C1F7F39419
S1131370E801FE10EDCFDF91CF911F910F91FF9007
S10D1380EF90DF900895F894FFCF7A
S105138A7800E5
S9030000FC
