S00B00006376312E737265630F
S11300000C9404090C9421090C9421090C94400CBF
S11300100C9421090C9421090C9421090C94040CCE
S11300200C9421090C9421090C9421090C942109A4
S11300300C9421090C9421090C94E10B0C942109D2
S11300400C9421090C9421090C94AB0B0C942109F8
S11300500C9421090C9421090C9421090C94210974
S11300600C9421090C9421090000000000000000F8
S11300700080C0E0F0F0F8F8F8FCFCFCFCFCFCFCB0
S1130080FCFCFCF8F8F8F0F0E0C080000000000090
S113009000000000000000E0F8FEFFFFFFFFFFFF8C
S11300A0FF7F1F0F0F0707070707070F0F1F7FFFAC
S11300B0FFFFFFFFFFFFFEF8E0000000000000006C
S11300C0FFFFFFFFFFFFFFFFFFFF1F000000000017
S11300D00000000000000000808FFFFFFFFFFFFF13
S11300E0FFFFFFFF800000000000FFFFFFFFFFFF96
S11300F0FFFFFFFF0000000080C0E0E0F0F8FCFC20
S1130100FEFF7F3FFFFFFFFFFFFFFFFFFFFFFF003B
S113011000000000FFFFFFFFFFFFFFFFFFFFFCFEEB
S1130120FF7F3F1F1F0F0707030100000000FFFFB1
S1130130FFFFFFFFFFFFFFFFFF00000000007FFF46
S1130140FFFFFFFFFFFFFFFFFD00000000000000B6
S113015000000000000000F8FFFFFFFFFFFFFFFFAB
S1130160FF7F00000000000000030F3F7FFFFFFF40
S1130170FFFFFFFFFCF8F8F0F0F0F0F0F0F8F8FC07
S1130180FFFFFFFFFFFFFF7F3F0F030000000000A2
S11301900000000000000000010307070F0F0F1FFD
S11301A01F1F1F1F1F1F1F1F1F0F0F0F07070301F5
S11301B0000000000000000000000000000000003B
S11301C0000000000000000000008080C0C0C0E00B
S11301D0E0E0F0F0F0F80000000000000000000093
S11301E000000000000000F0F8F8F8FCFCFCFEFE43
S11301F0FEFFFFFFFFFFFFFFFFFFFFFFFFFFFFFF0C
S113020000000000000000000000000000000000EA
S1130210003F1F1F0F0F070707030303010101FF1F
S1130220FFFFFFFFFFFFFFFFFFFF000000000000D4
S113023000000000000000000000000000000000BA
S1130240000000000000000000FFFFFFFFFFFFFFB1
S1130250FFFFFFFF0000000000000000000000009E
S1130260000000000000000000000000000000008A
S1130270000000FFFFFFFFFFFFFFFFFFFFFF000085
S1130280000000000000000000000000000000006A
S113029000000000000000000000000000FFFFFF5D
S11302A0FFFFFFFFFFFFFFFF000000000000000052
S11302B0000000000000000000000000000000003A
S11302C000000000000000FFFFFFFFFFFFFFFFFF33
S11302D0FFFF00000000000000000000000000001C
S11302E0000000000000000000000000000000000A
S11302F0000F0F0F0F0F0F0F0F0F0F0F0000000055
S1130300000000000000000000000000000080C0A9
S1130310C0E0F0F0F0F8F8F8FCFCFCFCFCFCFCFCA1
S1130320FCFCF8F8F8F0F0E0E0C080000000000009
S113033000000080E0F8FEFFFFFFFFFFFFFF7F3FAC
S11303401F0F07070707070707070F0F3F7FFFFF69
S1130350FFFFFFFFFFFFFCF080000000000F0F0F06
S11303600F0F0F0F0F0F0F0F000000000000000011
S113037000000000000000C0FFFFFFFFFFFFFFFFC1
S1130380FFFF3F000000000000000000000000002C
S1130390000000000000000000000080C0E0F8FC45
S11303A0FFFFFFFFFFFFFFFF7F1F070100000000AB
S11303B0000000000000000000000000000080C0F9
S11303C0E0F0FCFEFFFFFFFFFFFFFF7F3F1F07037F
S11303D00100000000000000000000000000000018
S11303E000C0E0F0F8FCFEFFFFFFFFFFFF7F3F1FB0
S11303F00F070301000000000000000000000000DF
S1130400000000000000F0F8FCFEFFFFFFFFFFFF0C
S1130410FFFFFFFFFBF9F8F8F8F8F8F8F8F8F8F838
S1130420F8F8F8F8F8F8F8F8F8F8F8F8F800000030
S11304300F0F0F0F0F0F0F0F0F0F0F0F0F0F0F0FC8
S11304400F0F0F0F0F0F0F0F0F0F0F0F0F0F0F0FB8
S11304500F0F0F0F0F0F0F000000000000000080AF
S1130460C0E0E0F0F0F8F8F8FCFCFCFCFCFCFCFC60
S1130470FCFCF8F8F8F8F0F0E0E0C08000000000C0
S11304800000000000F0FCFEFFFFFFFFFFFFFFFF86
S11304903F1F0F07070707070707070F0F1F7FFFF8
S11304A0FFFFFFFFFFFFFFFEF8C000000000030393
S11304B0030303030303030303000000000000001D
S11304C00000000000000000C0FFFFFFFFFFFFFF6F
S11304D0FFFFFF3F000000000000000000000000DC
S11304E000000000F8F8F8F8F8F8F8F8F8F8FCFC60
S11304F0FEFFFFFFFFFF7F3F1F1F0F0301000000F0
S113050000000000000000000000000000000F0FC9
S11305100F0F0F0F0F0F0F0F0F1F1F3F7FFFFFFF57
S1130520FFFFFEFEFCF8F0C000000000E0E0E0E0A9
S1130530E0E0E0E0E0E0E000000000000000000097
S11305400000000000000081FFFFFFFFFFFFFFFF2E
S1130550FFFFFE000000030F3F7FFFFFFFFFFFFFD1
S1130560FFFFFCF8F8F0F0F0F0F0F0F0F0F8F8FC31
S1130570FEFFFFFFFFFFFFFF7F3F1F07000000009C
S1130580000000000001030307070F0F0F0F1F1FD8
S11305901F1F1F1F1F1F1F1F0F0F0F0F070703030F
S11305A00100000000000000000000000000000046
S11305B00000000000000000000000000080C0F007
S11305C0F8F8F8F8F8F8F8F8F8F8F800000000007F
S11305D00000000000000000000000000000000017
S11305E0000080C0F0F8FEFFFFFFFFFFFFFFFFFFEA
S11305F0FFFFFFFFFF0000000000000000000000FC
S11306000000000000000080C0F0FCFEFFFFFFFFC0
S1130610FF7F1F07FFFFFFFFFFFFFFFFFFFFFF003D
S113062000000000000000000000000080C0F0FC9A
S1130630FEFFFFFFFFFF3F1F070300000000FFFF57
S1130640FFFFFFFFFFFFFFFFFF00000000000000AF
S11306500080C0F0FCFEFFFFFFFFFFBF9F8781808B
S11306608080808080808080FFFFFFFFFFFFFFFF8E
S1130670FFFFFF808080808080800EFFFFFFFFFFF0
S1130680FFFFFFFFFFFFFFFFFFFFFFFFFFFFFFFF76
S1130690FFFFFFFFFFFFFFFFFFFFFFFFFFFFFFFF66
S11306A0FFFFFFFF0000000000000000000000004A
S11306B0000000000000000000000000FFFFFFFF3A
S11306C0FFFFFFFFFFFFFF0000000000000000002D
S11306D00000000000000000000000000000000016
S11306E00000000000000F0F0F0F0F0F0F0F0F0F70
S11306F00F0000000000000000000000000000F8EF
S1130700F8F8F8F8F8F8F8F8F8F8F8F8F8F8F8F865
S1130710F8F8F8F8F8F8F8F8F8F8F8F8F8F8F8004D
S11307200000000000000000FCFFFFFFFFFFFFFFD0
S1130730FFFF0F0F0F0F0F0F0F0F0F0F0F0F0F0FE5
S11307400F0F0F0F0F0F0F0F0F000000000000001E
S113075000F8FFFFFFFFFFFFFFFFFF07000000801F
S11307608080808080808080000000000000000085
S113077000000000000000000000E0FFFFFFFFFF9A
S1130780FFFFFFFFFFFEFEFFFFFFFFFFFFFFFFFF77
S1130790FFFFFFFFFFFEFEFCFCF8F0C0800000003E
S11307A00000000001010103030303070703010123
S11307B00000000000000000000103030F3FFFFFE2
S11307C0FFFFFFFFFFFFFFFCC000000000E0E0E0D0
S11307D0E0E0E0E0E0E0E0C0000000000000000035
S11307E000000000000000C0FFFFFFFFFFFFFFFF4D
S11307F0FFFF1F00000000030F1F7FFFFFFFFFFF2D
S1130800FFFFFEFCF8F8F0F0F0F0F0F0F0F8F8FC80
S1130810FFFFFFFFFFFFFFFF7F3F0F03000000000C
S11308200000000000000101030707070F0F0F1F5E
S11308301F1F1F1F1F1F1F1F1F0F0F0F070703035C
S113084001000000000000000000000000000000A3
S113085000000000008080C0E0E0F0F0F0F8F8F85C
S1130860F8FCFCFCFCFCFCFC0000000000000000A8
S1130870000000000000000080C0F0F8FCFEFFFF54
S1130880FFFFFFFF7F7F3F1F1F0F0F0F07070707A4
S113089007070000000000000000000000000080C6
S11308A0F0FEFFFFFFFFFFFFFFFF3F070300008095
S11308B08080C0C0C0C0C0C0808080000000000034
S11308C00000000000000000F0FFFFFFFFFFFFFF3B
S11308D0FFFFFFF9FCFEFEFF7F7F7F7F7F7FFFFF2F
S11308E0FFFFFFFFFFFFFFFEFCFCF0E080000000C5
S11308F00000FFFFFFFFFFFFFFFFFFFFFF0F0301EC
S1130900000000000000000000000103071FFFFFBB
S1130910FFFFFFFFFFFFFFFEE0000000077FFFFF78
S1130920FFFFFFFFFFFFFFE00000000000000000EA
S113093000000000000000C0FFFFFFFFFFFFFFFFFB
S1130940FFFF3F0000000000030F1F7FFFFFFFFFBA
S1130950FFFFFFFEFCF8F0F0F0F0F0F0F0F8F8FC28
S1130960FFFFFFFFFFFFFFFF7F1F0F0100000000DD
S11309700000000000000001010307070F0F0F1F14
S11309801F1F1F1F1F1F1F1F1F0F0F0F070703010D
S11309900100000000000000000000000000000052
S11309A00000000000000000000000000000000043
S11309B00000000000000000000000000000000033
S11309C00000000000000000000000000000000023
S11309D00000000000000000000000000000000013
S11309E00000000000000000000000000000000003
S11309F000000000000000000000000000000000F3
S1130A0000000000000000000000000000000000E2
S1130A10000000000000000000F0F0F0F0F0F0F042
S1130A20F0F0F0F0F0F0F0F0F0F0F0F0F0F0F0F0C2
S1130A30F0F0F0F0F0F0F0F0F0F0F0F0F000000082
S1130A400000000F0F0F0F0F0F0F0F0F0F0F0F0FDF
S1130A500F0F0F0F0F0F0F0F0F0F0F0F0F0F0F0FA2
S1130A600F0F0F0F0F0F0F00000000000000000019
S1130A700000000000000000000000000000000072
S1130A800000000000000000000000000000000062
S1130A900000000000000000000000000000000052
S1130AA00000000000000000000000000000000042
S1130AB00000000000000000000000000000000032
S1130AC00000000000000000000000000000000022
S1130AD00000000000000000000000000000000012
S1130AE00000000000000000000000000000000002
S1130AF000005F0000000000000007000700000085
S1130B0000147F147F14000000242A7F2A1200009E
S1130B100023130864620000003649552250000087
S1130B200000050300000000001C2241000000003A
S1130B300041221C0000000000082A1C2A080000B2
S1130B400008083E0808000000A060000000000043
S1130B5000080808080800000060600000000000A9
S1130B600020100804020000003E5149453E0000E8
S1130B700000427F400000000062514949460000E5
S1130B800022414949360000001814127F10000069
S1130B900027454545390000003C4A4949300000DA
S1130BA00001710905030000003649494936000077
S1130BB000064949291E00000000363600000000E6
S1130BC00000AC6C0000000000081422410000008A
S1130BD0001414141414000000412214080000002E
S1130BE0000201510906000000324979413E00002B
S1130BF0007E0909097E0000007F4949493600004A
S1130C00003E414141220000007F4141221C00007E
S1130C10007F494949410000007F0909090100009A
S1130C20003E414151720000007F0808087F000027
S1130C3000417F4100000000002040413F010000CE
S1130C40007F081422410000007F40404040000023
S1130C50007F020C027F0000007F0408107F000068
S1130C60003E4141413E0000007F090909060000A1
S1130C70003E4151215E0000007F09192946000011
S1130C8000264949493200000001017F01010000AA
S1130C90003F4040403F0000001F2040201F000054
S1130CA0003F4038403F0000006314081463000014
S1130CB00003047804030000006151494543000027
S1130CC0007F4141000000000002040810200000E1
S1130CD00041417F00000000000402010204000002
S1130CE00080808080800000000102040000000079
S1130CF00020545454780000007F484444380000D5
S1130D00003844442800000000384444487F000070
S1130D10003854545418000000087E0902000000F2
S1130D200018A4A4A47C0000007F08040478000038
S1130D3000007D00000000000080847D00000000B1
S1130D40007F10284400000000417F4000000000A4
S1130D50007C041804780000007C08047C00000077
S1130D60003844443800000000FC2424180000002B
S1130D7000182424FC00000000007C08040000008B
S1130D80004854542400000000047F440000000084
S1130D90003C40407C000000001C2040201C00005F
S1130DA0003C4030403C000000442810284400002F
S1130DB0001CA0A07C000000004464544C440000CB
S1130DC0000836410000000000007F000000000021
S1130DD00041360800000000000201010201000089
S1130DE00002050502000000000000C0E0F0F0F081
S1130DF0F0F0F0F0F0F0F0F0F0F0F0E0C0000000FF
S1130E00000000FFFFFFFF010000000000000000E1
S1130E1001FFFFFFFF000000000000FFFFFFFF8055
S1130E20000000000000000080FFFFFFFF00000042
S1130E3000000003070F0F0F0F0F0F0F0F0F0F0FFF
S1130E400F0F0F0703000000000000000000000067
S1130E50000000000000E0F0F0E0000000000000EE
S1130E600000000000000000000000000000FFFF80
S1130E70FFFF000000000000000000000000000070
S1130E80000000000000FFFFFFFF00000000000062
S1130E900000000000000000000000000000030744
S1130EA00703000000000000000000E0F0F0F0F094
S1130EB0F0F0F0F0F0F0F0F0F0F0F0E000000000FE
S1130EC000000081C1C0C0C0C0C0C0C0C0C0C0E17B
S1130ED0FFFFFFFF00000000000000FFFFFFFF878F
S1130EE003030303030303030303838100000000DC
S1130EF0000000070F0F0F0F0F0F0F0F0F0F0F0F33
S1130F000F0F0F0700000000000000E0F0F0F0F009
S1130F10F0F0F0F0F0F0F0F0F0F0F0E0000000009D
S1130F2000000081C1C0C0C0C0C0C0C0C0C0C0E11A
S1130F30FFFFFF7F00000000000000818303030324
S1130F400303030303030387FFFFFFFE0000000006
S1130F50000000070F0F0F0F0F0F0F0F0F0F0F0FD2
S1130F600F0F0F0700000000000000E0F0F0F03069
S1130F700000000000000030F0F0F0E0000000008D
S1130F80000000FFFFFFFFE0C0C0C0C0C0C0C0E061
S1130F90FFFFFFFF00000000000000010303030344
S1130FA00303030303030307FFFFFFFF0000000025
S1130FB00000000000000000000000000000000C21
S1130FC00F0F0F0700000000000000E0F0F0F0F049
S1130FD0F0F0F0F0F0F0F0F0F0F0F0E000000000DD
S1130FE0000000FFFFFFFFE1C0C0C0C0C0C0C0C020
S1130FF0C0C0C1810000000000000081830303031E
S11310000303030303030387FFFFFFFF0000000044
S1131010000000070F0F0F0F0F0F0F0F0F0F0F0F11
S11310200F0F0F0700000000000000E0F0F0F0F0E8
S1131030F0F0F0F0F0F0F0F0F0F0F0E0000000007C
S1131040000000FFFFFFFFE1C0C0C0C0C0C0C0C0BF
S1131050C0C0C18100000000000000FFFFFFFF8747
S11310600303030303030387FFFFFFFF00000000E4
S1131070000000070F0F0F0F0F0F0F0F0F0F0F0FB1
S11310800F0F0F0700000000000000E0F0F0F0F088
S1131090F0F0F0F0F0F0F0F0F0F0F0E0000000001C
S11310A00000000101000000000000000000000139
S11310B0FFFFFFFF00000000000000000000000030
S11310C00000000000000000FFFFFFFF0000000020
S11310D00000000000000000000000000000000C00
S11310E00F0F0F0700000000000000E0F0F0F0F028
S11310F0F0F0F0F0F0F0F0F0F0F0F0E000000000BC
S11311000000007FFFFFFFE1C0C0C0C0C0C0C0E15D
S1131110FFFFFF3F00000000000000FEFFFFFF870D
S11311200303030303030387FFFFFFFE0000000024
S1131130000000070F0F0F0F0F0F0F0F0F0F0F0FF0
S11311400F0F0F0700000000000000E0F0F0F0F0C7
S1131150F0F0F0F0F0F0F0F0F0F0F0E0000000005B
S1131160000000FFFFFFFFE1C0C0C0C0C0C0C0E17D
S1131170FFFFFFFF00000000000000010303030362
S11311800303030303030307FFFFFFFF0000000043
S11311900000000000000000000000000000000C3F
S11311A00F0F0F0700000000000000000000000007
S11311B0000000000000000000000000000000002B
S11311C00000000000000000003C7E7E7E7E3C00AB
S11311D0000000000000000000000000000000000B
S11311E000F0F8F8F8F8F00000000000000000003B
S11311F000000000000000000000010101010000E7
S1131200000000000000000011241FBECFEFD8E052
S1131210DEBFCDBF11E0A0E0B1E0E6E4FEE102C034
S113122005900D92AC34B107D9F725E0ACE4B1E0F8
S113123001C01D92AA35B207E1F70E94260B0C9457
S1131240210F0C94000082E18093B800E9EBF0E0F8
S113125080818C7F808385E08093BC00089594EA2C
S11312609093BC00ECEBF0E090819923ECF7909123
S1131270B900987F983099F48093BB0084E88093F8
S1131280BC00ECEBF0E080818823ECF78091B9009E
S1131290887F883131F0803231F083E0089580E036
S11312A0089581E0089582E008958093BB0084E866
S11312B08093BC00ECEBF0E080818823ECF7809114
S11312C0B900887F883221F0803321F082E00895CC
S11312D080E0089581E0089584E98093BC00ECEBFC
S11312E0F0E0808184FDFDCF0895559A569A539A73
S11312F05D9A5E9A5B9A0895289A299A2A9A209868
S113130021982298E8E6F0E0808181608083EBE612
S1131310F0E080818160808380818260808380812D
S113132084608083089582E084BD85E085BD8CE976
S113133087BDEEE6F0E0808182608083089582E0DC
S11313408093B00085E08093B1008FEF8093B30069
S1131350E0E7F0E080818260808308950E942309A1
S11313608FE295E70197F1F700C000000E948C0D11
S11313700E94250E08958AB184618AB98BB18B7E4F
S11313808BB9519A5098589A1092C5008BE9809362
S1131390C400E1ECF0E0808188608083808180611A
S11313A08083808180688083E2ECF0E080818660C5
S11313B08083E0ECF0E08081826080830895E0EC3B
S11313C0F0E0908195FFFDCF8093C60080E0089502
S11313D0CF93DF9300D000D000D0CDB7DEB7BE01ED
S11313E06F5F7F4F80E591E00E94520DBE016D5FFB
S11313F07F4F80E591E00E94520D898181FD04C0F8
S113140082E08093000120C080FD04C081E08093CD
S113141000011AC082FD04C083E08093000114C05F
S113142083FD04C084E0809300010EC084FD04C0E9
S113143085E08093000108C085FD04C086E08093A8
S1131440000102C0109200018B8181FD04C082E082
S11314508093010120C080FD04C081E080930101DC
S11314601AC082FD04C083E08093010114C083FD8F
S113147004C084E0809301010EC084FD04C085E0B3
S11314808093010108C085FD04C086E080930101BA
S113149002C010920101BE016B5F7F4F80E591E0B5
S11314A00E94520D26960FB6F894DEBF0FBECDBF34
S11314B0DF91CF91089580910001823011F45E9AFA
S11314C008955E9880910101823011F45D9A089527
S11314D05D9808958091000140E050E060E070E084
S11314E090E00E94BC0E8091010146E050E060E073
S11314F070E090E00E94380E4DE050E064E070E04F
S113150082E090E00E94380E0895CF93DF9300D0DC
S113151000D000D0CDB7DEB7BE016F5F7F4F80E54E
S113152091E00E94520DBE016D5F7F4F80E591E016
S11315300E94520DBE016B5F7F4F80E591E00E94D7
S1131540520D898181FF04C08B819C810E94AE0C65
S113155026960FB6F894DEBF0FBECDBFDF91CF91B4
S113156008950F931F93CF93DF9300D000D0CDB78E
S1131570DEB7BE016F5F7F4F80E591E00E94520DA0
S1131580BE016D5F7F4F80E591E00E94520D89811D
S113159081FD06C08B819C818136910561F537C040
S11315A00E94FA0D0E94250E60E080E00E940E0E5B
S11315B08B819C818136910549F41AC01F3040F01B
S11315C00F5F60E0802F0E940E0E02C010E000E06A
S11315D0BE016D5F7F4F80E591E00E94520D8B81CB
S11315E00E94F40E1F5F8B819C818136910531F737
S11315F00E94F60D0CC0BE016D5F7F4F80E591E047
S11316000E94520D8B819C8181369105A1F70F9028
S11316100F900F900F90DF91CF911F910F9108952C
S1131620CF93DF9300D0CDB7DEB7BE016F5F7F4F9E
S113163080E591E00E94520D89819A81813691055D
S1131640A1F70F900F90DF91CF910895CF93DF937F
S113165000D0CDB7DEB70E94AE090E946A0A0E948C
S113166075090E94BB090E947C090E9493090E948B
S11316709F09789408E011E080914D01811140C0E8
S113168080914F01882309F449C05B98BE016F5FC4
S11316907F4F80E591E00E94520D89819A818134C7
S11316A09105A1F024F40197029728F021C0863413
S11316B09105A9F01DC00E94E8090E945B0A80916F
S11316C04C01811117C00E946A0A14C00E94850A45
S11316D010934C0110925705109256050BC00E94AE
S11316E0B10A10934C01109257051092560502C08E
S11316F00E94100B80914F01815080934F010EC0C6
S11317005E985D988BB180278BB92FE33EE785E027
S1131710215030408040E1F700C0000080914E012C
S1131720882379F0F89490E48BB189278BB92FEF53
S11317303EE984E2215030408040E1F700C00000DF
S1131740F3CF9FE729EA33E0915020403040E1F79E
S113175000C0000091CF1F920F920FB60F92112478
S11317602F933F934F935F936F937F938F939F93A5
S1131770AF93BF93EF93FF9310924D0110925905CD
S1131780109258056091C600613629F480914F018A
S11317908F5F80934F0170E080E591E00E942E0DF1
S11317A0FF91EF91BF91AF919F918F917F916F9135
S11317B05F914F913F912F910F900FBE0F901F900B
S11317C018951F920F920FB60F9211242F938F9397
S11317D09F938091580590915905019690935905CE
S11317E0809358058132934038F081E080934D0115
S11317F010925905109258059F918F912F910F9037
S11318000FBE0F901F9018951F920F920FB60F9254
S113181011242F933F934F935F936F937F938F93F1
S11318209F93AF93BF93EF93FF9380914C018823D1
S1131830B1F0809156059091570501969093570504
S1131840809356058130904150F010924C011092D3
S11318505705109256050E94250E0E946A0AFF91B0
S1131860EF91BF91AF919F918F917F916F915F9114
S11318704F913F912F910F900FBE0F901F9018958D
S11318801F920F920FB60F9211242F933F934F93F1
S11318905F936F937F938F939F93AF93BF93EF93D4
S11318A0FF9383B18770909102018093020189278D
S11318B0843059F128F4813041F08230B9F03DC0D0
S11318C08530A1F18630B1F138C08091020180FFEA
S11318D034C088E00E94DF0982E00E94DF098FE0C3
S11318E00E94DF0981E60E94DF0927C0809102017E
S11318F081FF23C010924C01109257051092560597
S11319000E94250E0E946A0A18C08091020182FF7B
S113191014C088E00E94DF0982E00E94DF0980EFA2
S11319200E94DF0981E60E94DF0907C085E00E946A
S1131930DF0903C086E00E94DF09FF91EF91BF91A8
S1131940AF919F918F917F916F915F914F913F9153
S11319502F910F900FBE0F901F901895CF93DF9388
S1131960EC010E94FA0D0E94250EC230D105F9F057
S1131970C330D105A9F1219709F04BC065E081E09E
S11319800E940E0E84E091E00E94900E67E083E0D6
S11319900E940E0E8AE091E00E94900E65E085E0C0
S11319A00E940E0E8DE091E00E94900E52C063E002
S11319B081E00E940E0E84E191E00E94900E67E0A7
S11319C083E00E940E0E8AE091E00E94900E65E092
S11319D085E00E940E0E8DE091E00E94900E39C0C9
S11319E062E081E00E940E0E80E291E00E94900E7F
S11319F067E083E00E940E0E8AE091E00E94900E60
S1131A0065E085E00E940E0E8DE091E00E94900E4C
S1131A1020C064E081E00E940E0E8BE291E00E94FF
S1131A20900E66E083E00E940E0E84E391E00E9433
S1131A30900E64E085E00E940E0E89E391E00E941E
S1131A40900E64E087E00E940E0E82E491E00E9412
S1131A50900E0E94F60DDF91CF910895FC018481D0
S1131A609581811522E092071CF08FEF9FEF089576
S1131A7001969583848322813381D9011396AA0F19
S1131A80BB1FAE0FBF1F6D937C932F5F3F4F317809
S1131A9033232CF4215031093E6F2F5F3F4F3383A2
S1131AA022830895FC0184819581892B11F1A08101
S1131AB0B1811396AA0FBB1FAE0FBF1F8D919C91CE
S1131AC0DB018D939C93208131812F5F3F4F3178CF
S1131AD033232CF4215031093E6F2F5F3F4F318364
S1131AE020838481958101979583848380E090E0AD
S1131AF008958FEF9FEF0895CF93C82F809103012E
S1131B000E942F0980E00E9455098C2F0E945509DC
S1131B100E946C09CF9108955C9A549A2FEF36E78E
S1131B2081E0215030408040E1F700C000009BB1CB
S1131B3080E198279BB99FEF26E731E09150204040
S1131B403040E1F700C000009BB189278BB98FEFCB
S1131B5096E721E0815090402040E1F700C000006A
S1131B608EEA0E947C0D85ED0E947C0D80E80E9427
S1131B707C0D88EA0E947C0D8FE30E947C0D83ED2E
S1131B800E947C0D80E00E947C0D80E40E947C0D0C
S1131B908DE80E947C0D84E10E947C0D81EA0E9404
S1131BA07C0D88EC0E947C0D8AED0E947C0D82E104
S1131BB00E947C0D81E80E947C0D8FEC0E947C0DBC
S1131BC089ED0E947C0D81EF0E947C0D8BED0E94BB
S1131BD07C0D80E40E947C0D84EA0E947C0D86EAE0
S1131BE00E947C0D8FEA0E947C0D08958FEA0E946A
S1131BF07C0D08958EEA0E947C0D0895CF93C82F22
S1131C00809103010E942F0980E40E9455098C2FC2
S1131C100E9455090E946C09CF910895CF93C62F55
S1131C2080550E947C0D8C2F880F880F880F887038
S1131C308E5F0E947C0D8C2F90E0969587958F7017
S1131C40805F0E947C0DCF910895CF93DF93D0E005
S1131C5060E08D2F0E940E0EC1E880E00E94FE0D10
S1131C60C150D9F7DF5FD83099F7DF91CF9108954C
S1131C707F928F929F92AF92BF92CF92DF92EF9218
S1131C80FF920F931F93CF93DF937C014B01742E2C
S1131C90642F882D0E940E0EC8EAD1E10F2EF8E0C1
S1131CA0CF2EF2E1DF2EF02D80E68E9D50018F9D28
S1131CB0B00C112400E010E080ECA81A83E0B80A0C
S1131CC0EAE0EE16F1042CF0FE0184910E94FE0D70
S1131CD006C0F501EC0FFD1F84910E94FE0D073133
S1131CE0110551F4FFEF8F1A9F0A672D882D0E946A
S1131CF00E0E00E010E002C00F5F1F4F2196CC15BE
S1131D00DD05F1F6DF91CF911F910F91FF90EF90D8
S1131D10DF90CF90BF90AF909F908F907F90089569
S1131D200F931F93CF93DF938C01DC018C9181116E
S1131D301BC01DC0D801EC91F0E0EE0FFF1FEE0FA9
S1131D40FF1FEE0FFF1FE851F64FEC0FFD1F8491AC
S1131D500E94FE0D2196C830D10561F70F5F1F4F19
S1131D60F8018081882319F0C0E0D0E0E3CFDF914F
S1131D70CF911F910F910895DF92EF92FF920F93ED
S1131D801F93CF93DF93D42E8730910514F087E00F
S1131D9090E0F62E20E531E0829FE001839FD00D94
S1131DA0929FD00D1124C859DF4F6894EE24E3F8B4
S1131DB0E60E6D2D8F2D0E940E0E8E01065D1F4FB7
S1131DC0FE0184910E94FE0D2196C017D107C1F730
S1131DD0F394E801FE10EDCFDF91CF911F910F91A5
S1131DE0FF90EF90DF9008950F931F93CF93DF93AD
S1131DF0082F809103010E942F0980E40E94550955
S1131E0010E0E801CC0FDD1FCC0FDD1FCC0FDD1F70
S1131E10C851D64F000F111F000F111F000F111FC3
S1131E200051164FFE0184910E9455092196C01756
S1131E30D107C1F70E946C09DF91CF911F910F91D7
S1091E400895F894FFCFA1
S1131E460A0AFF78424C494B41005449004B414D24
S1131E56455241004E455A414F535452554A450046
S1131E66505249424C495A554A4500544F544F2002
S1131E76204D410045535445004E454E4155434976
S10F1E864C005A4F4252415A495400008B
S9030000FC
