S00B00006376312E737265630F
S11300000C9434000C9446000C9446000C94460066
S11300100C9446000C9446000C9446000C94460044
S11300200C9446000C9446000C9446000C94460034
S11300300C9446000C9446000C942D010C9446003C
S11300400C9446000C9446000C94F1000C94460069
S11300500C9446000C9446000C9446000C94460004
S11300600C9446000C94460011241FBECFEFD8E038
S1130070DEBFCDBF21E0A0E0B1E001C01D92A131FF
S1130080B207E1F70E9497000C9450010C94000011
S1130090539A569A5B985E98219A2998089582E01B
S11300A084BD85E085BD8CE987BDEEE6F0E0808106
S11300B082608083089587B18C6087B988B1837F1B
S11300C088B9519A5098589A1092C5008BE9809338
S11300D0C400E1ECF0E080818860808380818061ED
S11300E08083808180688083E2ECF0E08081866098
S11300F08083E0ECF0E08081826080830895E0EC0E
S1130100F0E0908195FFFDCF8093C60080E00895D4
S11301108091080181FF02C05E9808955E9A8091E3
S1130120090181FF02C05B9808955B9A08950E94BB
S113013048000E945B000E944F00789412E0C7E0E0
S1130140D1E080910001811121C0299880910101A1
S1130150882351F18881843061F028F49FEF980F4F
S1130160923020F00EC0883041F00BC00E9488000D
S11301700AC08DE40E947F0006C082E50E947F00D1
S113018002C00E947F00109201010EC05E985B982D
S113019085B1812785B92FE33EE785E021503040C2
S11301A08040E1F700C0000080910201882379F0CB
S11301B0F89490E48BB189278BB92FEF3EE984E260
S11301C0215030408040E1F700C00000F3CF9FE7AA
S11301D029EA33E0915020403040E1F700C00000AC
S11301E0B0CF1F920F920FB60F9211242F938F93BB
S11301F09F93EF93FF9310920001109206011092C7
S113020005018091010181111EC08091030190912B
S113021004012091C600FC01E95FFE4F20832136D2
S113022041F481E0809301011092040110920301D2
S11302300AC0019690930401809303010A971CF06D
S113024081E080930201FF91EF919F918F912F9113
S11302500F900FBE0F901F9018951F920F920FB61C
S11302600F9211242F938F939F9380910501909166
S11302700601019690930601809305018132934013
S113028038F081E08093000110920601109205017C
S11302909F918F912F910F900FBE0F901F901895E3
S10702A0F894FFCFFC
S9030000FC
