S01D00007369676E616C697A61636E615F6A65646E6F746B612E7372656364
S11300000C94740A0C94910A0C94910A0C94D30DD8
S11300100C94910A0C94910A0C94910A0C94970DE7
S11300200C94910A0C94910A0C94910A0C94910AE0
S11300300C94910A0C94910A0C94740D0C94910AEA
S11300400C94910A0C94910A0C943E0D0C94910A10
S11300500C94910A0C94910A0C94910A0C94910AB0
S11300600C94910A0C94910A00000000000000C056
S1130070C0C0E0E0E0E0E0E0C0C0C08080000080FC
S1130080C0E0F0F87C7C3E1E1E1E1E1E1E1E1E1EA0
S11300903E3C7CF8F0E0C08000000000000000005E
S11300A0000000000000000000000000000000004C
S11300B0000000000000000000000000000000003C
S11300C0000000000000000000000000000000002C
S11300D0000000000000000000000000000000001C
S11300E0000000000000000000C0F8FCFE3F1F07F5
S11300F007030101010101010303070F3FFFFEFF95
S1130100FF0F0300000000000000000000000000DA
S113011000000000030F7FFFFFF800000000000054
S113012000000000000000000000000000000000CB
S113013000000000000000000000000000000000BB
S113014000000000000000000000000000000000AB
S1130150000000000000000000000000000000009B
S11301600000000000000000001F7FFFFFF0C080BF
S11301700000000000000000000080C0E0FFFF3F1E
S1130180FFFEF0E08080000000000000000000009E
S1130190008080C0F0FC7F7F1F030000000000008F
S11301A00000000000000000000000000000040443
S11301B0FCFC848480808484FCFC0404040C1C3CCB
S11301C0FCE4C0E43C1C04040404FCFC8484848437
S11301D084CC7C380404FCFC848484E4040C3C005B
S11301E0000000000000000000F0F8FDFFFFFFFF2A
S11301F0FFFEFEFEFEFEFEFEFEFFFFFFFFFFFEFE15
S1130200FEFFFFFFFFFFFFFEFEFEFEFEFEFEFEFE04
S1130210FFFFFFFFFFFDFCFCF8E0C0808080C0C052
S1130220C0E0F0F0F8F8F800000000000000101042
S11302301F1F1010000010101F1F101000000010CE
S1130240101F1F101000000010101F1F101010109E
S113025010191F0F10101F1F1010101310181E005C
S1130260000000000000000000FFFFFFFFFF3F0749
S1130270C3FF7F1F8FC1F0F8FFFF7F1FC72381FBE0
S1130280FFFFFFFFFFFFFFFF3F1FDFFFFFFFFFFF3A
S1130290FFFFFFFFFFFFFFFFFFFFFF1F0F0F07071A
S11302A0070303FFFFFFFF00000082C2C2C2C2C2F5
S11302B0C2C2C2C2C28202020282C2C2820202025A
S11302C0020202C2C2C2C2C2C20202020202C2C20A
S11302D0C2C2C2C202020202C2C2C2C2C2C2C202BA
S11302E0C2C2C2C20000000000FFFFFFFF1F00F2F5
S11302F0E180061F7FFF7F7FBF870072797E7FBF0B
S1130300070368707D3F9F8F0F3F7F7FBFDF6F07BD
S113031003239FCF8F0F3F7FFFFFFF0000000000EC
S1130320000000FFFFFFFF00000003030100FFFFC8
S1130330FFFF0001030380E0F87F677F7FFFFCF08D
S113034080000000FFFFFFFF00000080C0C000FF2E
S1130350FFFFFF00000080C0C0010307FFFFFEFE97
S1130360070300000000000000FFFFFFFFBC9EDF4A
S1130370DFCFEEECECEEEEEFF7F7F7F6F6F6F7F785
S1130380F7F6F6F6F7F7F7F7F6F6F6F7F7F7F4F405
S1130390F6F7F7F7F7F7F6F7FFFFFFF0F0E0E0C046
S11303A0C08080FFFFFFFF00000000000003030384
S11303B00303030000030303030300000303030315
S11303C003030003030303030303030303010303FE
S11303D003030303030303030100000303030303F1
S11303E00300000000000000000F1F3F7F7F7F7F9D
S11303F07F7F7F7F7F7F7F7F7F7F7F7F7F7F7F7F09
S11304007F7F7F7F7F7F7F7F7F7F7F7F7F7F7F7FF8
S11304107F7F7F7F7F7F7F3F1F0F070101030307DC
S1130420070F0F1F3F3F3F000000000000000000C7
S113043000000000000000000000000000000000B8
S113044000000000000000000000000000000000A8
S11304500000000000000000000000000000000098
S11304600000000000000000000000000000000088
S113047000005F000000000000000700070000000B
S113048000147F147F14000000242A7F2A12000025
S1130490002313086462000000364955225000000E
S11304A00000050300000000001C224100000000C1
S11304B00041221C0000000000082A1C2A08000039
S11304C00008083E0808000000A0600000000000CA
S11304D00008080808080000006060000000000030
S11304E00020100804020000003E5149453E00006F
S11304F00000427F4000000000625149494600006C
S11305000022414949360000001814127F100000EF
S11305100027454545390000003C4A494930000060
S113052000017109050300000036494949360000FD
S113053000064949291E000000003636000000006C
S11305400000AC6C00000000000814224100000010
S113055000141414141400000041221408000000B4
S1130560000201510906000000324979413E0000B1
S1130570007E0909097E0000007F494949360000D0
S1130580003E414141220000007F4141221C000005
S1130590007F494949410000007F09090901000021
S11305A0003E414151720000007F0808087F0000AE
S11305B000417F4100000000002040413F01000055
S11305C0007F081422410000007F404040400000AA
S11305D0007F020C027F0000007F0408107F0000EF
S11305E0003E4141413E0000007F09090906000028
S11305F0003E4151215E0000007F09192946000098
S113060000264949493200000001017F0101000030
S1130610003F4040403F0000001F2040201F0000DA
S1130620003F4038403F000000631408146300009A
S113063000030478040300000061514945430000AD
S1130640007F414100000000000204081020000067
S11306500041417F00000000000402010204000088
S113066000808080808000000001020400000000FF
S11306700020545454780000007F4844443800005B
S1130680003844442800000000384444487F0000F7
S1130690003854545418000000087E090200000079
S11306A00018A4A4A47C0000007F080404780000BF
S11306B000007D00000000000080847D0000000038
S11306C0007F10284400000000417F40000000002B
S11306D0007C041804780000007C08047C000000FE
S11306E0003844443800000000FC242418000000B2
S11306F000182424FC00000000007C080400000012
S1130700004854542400000000047F44000000000A
S1130710003C40407C000000001C2040201C0000E5
S1130720003C4030403C00000044281028440000B5
S1130730001CA0A07C000000004464544C44000051
S1130740000836410000000000007F0000000000A7
S1130750004136080000000000020101020100000F
S11307600002050502000000000000000000000077
S11307700080C0E0F0F0F8F8F8FCFCFCFCFCFCFCA9
S1130780FCFCFCF8F8F8F0F0E0C080000000000089
S113079000000000000000E0F8FEFFFFFFFFFFFF85
S11307A0FF7F1F0F0F0707070707070F0F1F7FFFA5
S11307B0FFFFFFFFFFFFFEF8E00000000000000065
S11307C0FFFFFFFFFFFFFFFFFFFF1F000000000010
S11307D00000000000000000808FFFFFFFFFFFFF0C
S11307E0FFFFFFFF800000000000FFFFFFFFFFFF8F
S11307F0FFFFFFFF0000000080C0E0E0F0F8FCFC19
S1130800FEFF7F3FFFFFFFFFFFFFFFFFFFFFFF0034
S113081000000000FFFFFFFFFFFFFFFFFFFFFCFEE4
S1130820FF7F3F1F1F0F0707030100000000FFFFAA
S1130830FFFFFFFFFFFFFFFFFF00000000007FFF3F
S1130840FFFFFFFFFFFFFFFFFD00000000000000AF
S113085000000000000000F8FFFFFFFFFFFFFFFFA4
S1130860FF7F00000000000000030F3F7FFFFFFF39
S1130870FFFFFFFFFCF8F8F0F0F0F0F0F0F8F8FC00
S1130880FFFFFFFFFFFFFF7F3F0F0300000000009B
S11308900000000000000000010307070F0F0F1FF6
S11308A01F1F1F1F1F1F1F1F1F0F0F0F07070301EE
S11308B00000000000000000000000000000000034
S11308C0000000000000000000008080C0C0C0E004
S11308D0E0E0F0F0F0F8000000000000000000008C
S11308E000000000000000F0F8F8F8FCFCFCFEFE3C
S11308F0FEFFFFFFFFFFFFFFFFFFFFFFFFFFFFFF05
S113090000000000000000000000000000000000E3
S1130910003F1F1F0F0F070707030303010101FF18
S1130920FFFFFFFFFFFFFFFFFFFF000000000000CD
S113093000000000000000000000000000000000B3
S1130940000000000000000000FFFFFFFFFFFFFFAA
S1130950FFFFFFFF00000000000000000000000097
S11309600000000000000000000000000000000083
S1130970000000FFFFFFFFFFFFFFFFFFFFFF00007E
S11309800000000000000000000000000000000063
S113099000000000000000000000000000FFFFFF56
S11309A0FFFFFFFFFFFFFFFF00000000000000004B
S11309B00000000000000000000000000000000033
S11309C000000000000000FFFFFFFFFFFFFFFFFF2C
S11309D0FFFF000000000000000000000000000015
S11309E00000000000000000000000000000000003
S11309F0000F0F0F0F0F0F0F0F0F0F0F000000004E
S1130A00000000000000000000000000000080C0A2
S1130A10C0E0F0F0F0F8F8F8FCFCFCFCFCFCFCFC9A
S1130A20FCFCF8F8F8F0F0E0E0C080000000000002
S1130A3000000080E0F8FEFFFFFFFFFFFFFF7F3FA5
S1130A401F0F07070707070707070F0F3F7FFFFF62
S1130A50FFFFFFFFFFFFFCF080000000000F0F0FFF
S1130A600F0F0F0F0F0F0F0F00000000000000000A
S1130A7000000000000000C0FFFFFFFFFFFFFFFFBA
S1130A80FFFF3F0000000000000000000000000025
S1130A90000000000000000000000080C0E0F8FC3E
S1130AA0FFFFFFFFFFFFFFFF7F1F070100000000A4
S1130AB0000000000000000000000000000080C0F2
S1130AC0E0F0FCFEFFFFFFFFFFFFFF7F3F1F070378
S1130AD00100000000000000000000000000000011
S1130AE000C0E0F0F8FCFEFFFFFFFFFFFF7F3F1FA9
S1130AF00F070301000000000000000000000000D8
S1130B00000000000000F0F8FCFEFFFFFFFFFFFF05
S1130B10FFFFFFFFFBF9F8F8F8F8F8F8F8F8F8F831
S1130B20F8F8F8F8F8F8F8F8F8F8F8F8F800000029
S1130B300F0F0F0F0F0F0F0F0F0F0F0F0F0F0F0FC1
S1130B400F0F0F0F0F0F0F0F0F0F0F0F0F0F0F0FB1
S1130B500F0F0F0F0F0F0F000000000000000080A8
S1130B60C0E0E0F0F0F8F8F8FCFCFCFCFCFCFCFC59
S1130B70FCFCF8F8F8F8F0F0E0E0C08000000000B9
S1130B800000000000F0FCFEFFFFFFFFFFFFFFFF7F
S1130B903F1F0F07070707070707070F0F1F7FFFF1
S1130BA0FFFFFFFFFFFFFFFEF8C00000000003038C
S1130BB00303030303030303030000000000000016
S1130BC00000000000000000C0FFFFFFFFFFFFFF68
S1130BD0FFFFFF3F000000000000000000000000D5
S1130BE000000000F8F8F8F8F8F8F8F8F8F8FCFC59
S1130BF0FEFFFFFFFFFF7F3F1F1F0F0301000000E9
S1130C0000000000000000000000000000000F0FC2
S1130C100F0F0F0F0F0F0F0F0F1F1F3F7FFFFFFF50
S1130C20FFFFFEFEFCF8F0C000000000E0E0E0E0A2
S1130C30E0E0E0E0E0E0E000000000000000000090
S1130C400000000000000081FFFFFFFFFFFFFFFF27
S1130C50FFFFFE000000030F3F7FFFFFFFFFFFFFCA
S1130C60FFFFFCF8F8F0F0F0F0F0F0F0F0F8F8FC2A
S1130C70FEFFFFFFFFFFFFFF7F3F1F070000000095
S1130C80000000000001030307070F0F0F0F1F1FD1
S1130C901F1F1F1F1F1F1F1F0F0F0F0F0707030308
S1130CA0010000000000000000000000000000003F
S1130CB00000000000000000000000000080C0F000
S1130CC0F8F8F8F8F8F8F8F8F8F8F8000000000078
S1130CD00000000000000000000000000000000010
S1130CE0000080C0F0F8FEFFFFFFFFFFFFFFFFFFE3
S1130CF0FFFFFFFFFF0000000000000000000000F5
S1130D000000000000000080C0F0FCFEFFFFFFFFB9
S1130D10FF7F1F07FFFFFFFFFFFFFFFFFFFFFF0036
S1130D2000000000000000000000000080C0F0FC93
S1130D30FEFFFFFFFFFF3F1F070300000000FFFF50
S1130D40FFFFFFFFFFFFFFFFFF00000000000000A8
S1130D500080C0F0FCFEFFFFFFFFFFBF9F87818084
S1130D608080808080808080FFFFFFFFFFFFFFFF87
S1130D70FFFFFF808080808080800EFFFFFFFFFFE9
S1130D80FFFFFFFFFFFFFFFFFFFFFFFFFFFFFFFF6F
S1130D90FFFFFFFFFFFFFFFFFFFFFFFFFFFFFFFF5F
S1130DA0FFFFFFFF00000000000000000000000043
S1130DB0000000000000000000000000FFFFFFFF33
S1130DC0FFFFFFFFFFFFFF00000000000000000026
S1130DD0000000000000000000000000000000000F
S1130DE00000000000000F0F0F0F0F0F0F0F0F0F69
S1130DF00F0000000000000000000000000000F8E8
S1130E00F8F8F8F8F8F8F8F8F8F8F8F8F8F8F8F85E
S1130E10F8F8F8F8F8F8F8F8F8F8F8F8F8F8F80046
S1130E200000000000000000FCFFFFFFFFFFFFFFC9
S1130E30FFFF0F0F0F0F0F0F0F0F0F0F0F0F0F0FDE
S1130E400F0F0F0F0F0F0F0F0F0000000000000017
S1130E5000F8FFFFFFFFFFFFFFFFFF070000008018
S1130E60808080808080808000000000000000007E
S1130E7000000000000000000000E0FFFFFFFFFF93
S1130E80FFFFFFFFFFFEFEFFFFFFFFFFFFFFFFFF70
S1130E90FFFFFFFFFFFEFEFCFCF8F0C08000000037
S1130EA0000000000101010303030307070301011C
S1130EB00000000000000000000103030F3FFFFFDB
S1130EC0FFFFFFFFFFFFFFFCC000000000E0E0E0C9
S1130ED0E0E0E0E0E0E0E0C000000000000000002E
S1130EE000000000000000C0FFFFFFFFFFFFFFFF46
S1130EF0FFFF1F00000000030F1F7FFFFFFFFFFF26
S1130F00FFFFFEFCF8F8F0F0F0F0F0F0F0F8F8FC79
S1130F10FFFFFFFFFFFFFFFF7F3F0F030000000005
S1130F200000000000000101030707070F0F0F1F57
S1130F301F1F1F1F1F1F1F1F1F0F0F0F0707030355
S1130F40010000000000000000000000000000009C
S1130F5000000000008080C0E0E0F0F0F0F8F8F855
S1130F60F8FCFCFCFCFCFCFC0000000000000000A1
S1130F70000000000000000080C0F0F8FCFEFFFF4D
S1130F80FFFFFFFF7F7F3F1F1F0F0F0F070707079D
S1130F9007070000000000000000000000000080BF
S1130FA0F0FEFFFFFFFFFFFFFFFF3F07030000808E
S1130FB08080C0C0C0C0C0C080808000000000002D
S1130FC00000000000000000F0FFFFFFFFFFFFFF34
S1130FD0FFFFFFF9FCFEFEFF7F7F7F7F7F7FFFFF28
S1130FE0FFFFFFFFFFFFFFFEFCFCF0E080000000BE
S1130FF00000FFFFFFFFFFFFFFFFFFFFFF0F0301E5
S1131000000000000000000000000103071FFFFFB4
S1131010FFFFFFFFFFFFFFFEE0000000077FFFFF71
S1131020FFFFFFFFFFFFFFE00000000000000000E3
S113103000000000000000C0FFFFFFFFFFFFFFFFF4
S1131040FFFF3F0000000000030F1F7FFFFFFFFFB3
S1131050FFFFFFFEFCF8F0F0F0F0F0F0F0F8F8FC21
S1131060FFFFFFFFFFFFFFFF7F1F0F0100000000D6
S11310700000000000000001010307070F0F0F1F0D
S11310801F1F1F1F1F1F1F1F1F0F0F0F0707030106
S1131090010000000000000000000000000000004B
S11310A0000000000000000000000000000000003C
S11310B0000000000000000000000000000000002C
S11310C0000000000000000000000000000000001C
S11310D0000000000000000000000000000000000C
S11310E000000000000000000000000000000000FC
S11310F000000000000000000000000000000000EC
S113110000000000000000000000000000000000DB
S113111000000000000000000000000000000000CB
S113112000000000000000000000000000000000BB
S113113000000000000000000000000000000000AB
S1131140000000000000000000000000000000009B
S1131150000000000000000000000000000000008B
S1131160000000000000000000000000000000007B
S1131170000000000000000000000000000000006B
S1131180000000000000000000000000000000005B
S1131190000000000000000000000000000000004B
S11311A0000000000000000000000000000000003B
S11311B0000000000000000000000000000000002B
S11311C0000000000000000000000000000000001B
S11311D0000000000000000000000000000000000B
S11311E0000000000000000000000000C0F0F8FC57
S11311F0FCFE3E3E3E3E3E7EFCFCFCF8F0C00000A1
S1131200000000FFFFFFFFFFFF00008080C0E0F050
S113121070FFFFFFFFFFFE00000000FFFFFFFFFF66
S1131220FF0E0F070303010000FFFFFFFFFF7F0016
S113123000000000030F1F3F3F7F7C7C7C7C7C7E92
S11312403F3F3F1F0F03000000000000E0E0F0F00C
S1131250F0F8F8F8FCFCFEFEFE00000000000000C0
S11312600000000003030101010000FFFFFFFFFF76
S1131270FF0000000000000000000000000000006B
S1131280000000FFFFFFFFFFFF0000000000000060
S113129000000000000000000000007F7F7F7F7FCF
S11312A07F000000000000000000C0E0F0F8FCFC3B
S11312B07C3E3E3E3E3E3E7EFCFCF8F8E080000074
S11312C00004070707070701000000000080C0F0C2
S11312D0FFFFFFFF3F0F0000000000000000C0E020
S11312E0F0F8FCFE7F3F1F0F070301000000000021
S11312F00000787C7E7F7F7F7F7F7D7C7C7C7C7C14
S11313007C7C7C7C7C7C7C00000080E0F0F8FCFC35
S1131310FC3E3E3E3E3E3E7EFCFCFCF8F0E000001F
S1131320000001010101010100E0E0E0E0E0E0F083
S1131330F8FFFF3F3F0F03000000C0C0C0C0C0C0A3
S1131340000303030303030707FFFFFFFEFCF8008A
S1131350000001070F1F3F3F3E7E7C7C7C7C7C7C31
S11313603E3F3F1F0F070100000000000000000087
S1131370000080E0F8FCFEFEFEFEFEFE0000000021
S11313800000000000C0E0F8FCFF7F1F0F03FFFF18
S1131390FFFFFFFF0000000000E0F8FCFFFFFFF785
S11313A0F3F0F0F0F0F0FFFFFFFFFFFFF0F0F0F0DC
S11313B000010101010101010101010101017F7F1E
S11313C07F7F7F7F0101010100000000E0FEFEFE3F
S11313D0FEFE3E3E3E3E3E3E3E3E3E3E3E3E000025
S11313E0000000C0FFFFFFFFFFF878787C7C7CFCE6
S11313F0F8F8F8F0E0C00000000040C0C0C0C0C170
S1131400800000000000000001FFFFFFFFFFFE005E
S1131410000000030F0F1F3F3F7E7C7C7C7C7C7EA2
S11314203F3F3F1F0F0700000000000000C0E0F036
S1131430F0F8FC7C7C3E3E3E3E3E00000000000096
S11314400000C0FCFFFFFFFFE7F17878787C7CFCAC
S1131450F8F8F8F0E0C0000000003FFFFFFFFFFFD6
S1131460810000000000000001FFFFFFFFFFFE00FD
S113147000000001070F1F3F3F7E7C7C7C7C7C7E4C
S11314803F3F1F1F0F03000000000000000000008A
S11314900000000000000000000000000000000048
S11314A00000000000000000000000000000000038
S11314B00000000000000000000000000000000028
S11314C00000000000000000000000000000000018
S11314D00000000000000000000000000000000008
S11314E0000000000000000011241FBECFEFD8E070
S11314F0DEBFCDBF11E0A0E0B1E0E8E6F1E202C05A
S113150005900D92AC34B107D9F725E0ACE4B1E015
S113151001C01D92AA35B207E1F70E94A90C0C94F0
S1131520B2100C94000082E18093B800E9EBF0E083
S113153080818C7F808385E08093BC00089594EA49
S11315409093BC00ECEBF0E090819923ECF7909140
S1131550B900987F983099F48093BB0084E8809315
S1131560BC00ECEBF0E080818823ECF78091B900BB
S1131570887F883131F0803231F083E0089580E053
S1131580089581E0089582E008958093BB0084E883
S11315908093BC00ECEBF0E080818823ECF7809131
S11315A0B900887F883221F0803321F082E00895E9
S11315B080E0089581E0089584E98093BC00ECEB19
S11315C0F0E0808184FDFDCF0895559A569A539A90
S11315D05D9A5E9A5B9A0895289A299A2A9A209885
S11315E021982298E8E6F0E0808181608083EBE630
S11315F0F0E080818160808380818260808380814B
S11316008460808308958CE987BD84B5826084BD3D
S113161085B5856085BDEEE6F0E0808182608083DB
S113162008958FEF8093B30082E08093B000E1EBE4
S1131630F0E0808185608083E0E7F0E08081826073
S1131640808308950E94930A8FE295E70197F1F74A
S113165000C000000E94260F0E94BF0F08955F9AE9
S11316605798529A549A5A985C98519A589A509802
S11316701092C5008BE98093C400E1ECF0E0808116
S1131680886080838081806180838081806880839A
S1131690E2ECF0E0808186608083E0ECF0E0808121
S11316A0826080830895E0ECF0E0908195FFFDCFA7
S11316B08093C60081E00895CF93DF9300D000D0DB
S11316C000D0CDB7DEB7BE016F5F7F4F82E591E0FA
S11316D00E94EC0EBE016D5F7F4F82E591E00E9497
S11316E0EC0E898180FD04C081E08093000121C05B
S11316F081FD04C082E0809300011BC082FD04C010
S113170083E08093000115C083FD04C084E08093CE
S113171000010FC084FD04C085E08093000109C06E
S113172085FD04C086E08093000103C087E08093B8
S113173000018B8180FD04C081E08093010121C000
S113174081FD04C082E0809301011BC082FD04C0BE
S113175083E08093010115C083FD04C084E080937D
S113176001010FC084FD04C085E08093010109C01C
S113177085FD04C086E08093010103C087E0809367
S11317800101BE016B5F7F4F82E591E00E94EC0E88
S113179081E02D813E812E37310509F080E02696C7
S11317A00FB6F894DEBF0FBECDBFDF91CF91089581
S11317B080910001813019F45E9A5D9808955E98D5
S11317C080910101813011F45D9A08955D98089526
S11317D08091000140E050E060E070E00E942F1032
S11317E08091010146E050E060E070E00E94D20F79
S11317F04DE050E064E070E081E00E94D20F089573
S1131800CF93DF9300D000D000D0CDB7DEB7BE01B8
S11318106F5F7F4F82E591E00E94EC0EBE016D5F29
S11318207F4F82E591E00E94EC0EBE016B5F7F4F1B
S113183082E591E00E94EC0E898180FF04C08B81D7
S11318409C810E94320E81E02D813E812E3731052C
S113185009F080E026960FB6F894DEBF0FBECDBF28
S1131860DF91CF9108950F931F93CF93DF9300D00F
S113187000D0CDB7DEB7BE016F5F7F4F82E591E048
S11318800E94EC0EBE016D5F7F4F82E591E00E94E5
S1131890EC0E898180FD06C08B819C818E37910579
S11318A069F538C00E94940F0E94BF0F60E080E089
S11318B00E94A80F8B819C818E37910551F41BC027
S11318C01F3048F00F5F60E0802F0E94A80F10E0E7
S11318D002C010E000E0BE016D5F7F4F82E591E041
S11318E00E94EC0E8B810E9485101F5F8B819C816E
S11318F08E37910529F70E94900F0CC0BE016D5FD1
S11319007F4F82E591E00E94EC0E8B819C818E37A3
S11319109105A1F70F900F900F900F90DF91CF9149
S11319201F910F910895CF93DF9300D0CDB7DEB709
S1131930BE016F5F7F4F82E591E00E94EC0E8981CA
S11319409A818E379105A1F70F900F90DF91CF9177
S11319500895CF93DF9300D0CDB7DEB782E591E051
S11319600E94B20E0E94220B0E9463100E94E50A9C
S11319700E942F0B0E94EC0A0E94030B0E94110B81
S113198078942FEF3AE187EB215030408040E1F723
S113199000C000000E94BF0F0E94E80B08E011E0A5
S11319A080914D0181113FC080914F01882309F43A
S11319B048C05B98BE016F5F7F4F82E591E00E9453
S11319C0EC0E89819A818430910599F024F4019771
S11319D0029720F020C00897A9F01DC00E945C0B5C
S11319E00E94D80B80914C01811117C00E94E80B12
S11319F014C00E94000C10934C01109251011092DB
S1131A0050010BC00E94330C10934C0110925101F1
S1131A101092500102C00E94930C80914F0181509A
S1131A2080934F010EC05E985D988BB180278BB96F
S1131A309FE32EE735E0915020403040E1F700C0AD
S1131A40000080914E01882379F0F89490E48BB1E2
S1131A5089278BB98FEF2EE934E281502040304042
S1131A60E1F700C00000F3CF8FE799EA23E081504B
S1131A7090402040E1F700C0000092CF1F920F92E7
S1131A800FB60F9211242F933F934F935F936F934D
S1131A907F938F939F93AF93BF93EF93FF93109292
S1131AA04D0110925905109258056091C6006E3789
S1131AB029F480914F018F5F80934F0170E082E59C
S1131AC091E00E94C80EFF91EF91BF91AF919F9159
S1131AD08F917F916F915F914F913F912F910F90D3
S1131AE00FBE0F901F9018951F920F920FB60F9272
S1131AF011242F938F939F938091580590915905AA
S1131B00019690935905809358058032934038F09C
S1131B1081E080934D0110925905109258059F91D0
S1131B208F912F910F900FBE0F901F9018951F92B9
S1131B300F920FB60F9211242F933F934F935F93FD
S1131B406F937F938F939F93AF93BF93EF93FF9381
S1131B5080914C018823B1F0809150019091510102
S1131B60019690935101809350018130904150F03F
S1131B7010924C0110925101109250010E94BF0F1B
S1131B800E94E80BFF91EF91BF91AF919F918F91CC
S1131B907F916F915F914F913F912F910F900FBE65
S1131BA00F901F9018951F920F920FB60F92112449
S1131BB02F933F934F935F936F937F938F939F9351
S1131BC0AF93BF93EF93FF9383B18770909102011A
S1131BD08093020189278230A9F0843011F1813089
S1131BE081F58091020180FF2CC080E10E94530B9B
S1131BF081E00E94530B8FE00E94530B8EE70E94FA
S1131C00530B1FC08091020181FF1BC010924C0135
S1131C1010925101109250010E94BF0F0E94E80BD4
S1131C2010C08091020182FF0CC080E10E94530B1E
S1131C3081E00E94530B80EF0E94530B8EE70E94B9
S1131C40530BFF91EF91BF91AF919F918F917F9132
S1131C506F915F914F913F912F910F900FBE0F9015
S1131C601F901895CF93DF93EC010E94940F0E946C
S1131C70BF0FC230D105F9F0C330D105A9F12197C6
S1131C8009F04BC065E081E00E94A80F84E091E078
S1131C900E94031067E083E00E94A80F8AE091E0AD
S1131CA00E94031065E085E00E94A80F8DE091E09A
S1131CB00E94031052C063E081E00E94A80F84E1F7
S1131CC091E00E94031067E083E00E94A80F8AE07D
S1131CD091E00E94031065E085E00E94A80F8DE06A
S1131CE091E00E94031039C062E081E00E94A80FD5
S1131CF080E291E00E94031067E083E00E94A80F55
S1131D008AE091E00E94031065E085E00E94A80F3C
S1131D108DE091E00E94031020C064E081E00E9405
S1131D20A80F8BE291E00E94031066E083E00E941A
S1131D30A80F84E391E00E94031064E085E00E9410
S1131D40A80F89E391E00E94031064E087E00E94F9
S1131D50A80F82E491E00E9403100E94900FDF918B
S1131D60CF910895DC0115961C921E92149711963A
S1131D701C921E9213961C921E921297FC01369688
S1131D808A5F9B4F11921192E817F907D9F70895CA
S1131D90FC0184819581811522E092071CF08FEF6C
S1131DA09FEF089501969583848322813381D9011D
S1131DB01396AA0FBB1FAE0FBF1F6D937C932F5FAB
S1131DC03F4F317833232CF4215031093E6F2F5F7C
S1131DD03F4F338322830895FC0184819581892BAD
S1131DE011F1A081B1811396AA0FBB1FAE0FBF1FC3
S1131DF08D919C91DB018D939C93208131812F5F88
S1131E003F4F317833232CF4215031093E6F2F5F3B
S1131E103F4F318320838481958101979583848307
S1131E2080E090E008958FEF9FEF0895CF93C82F3F
S1131E30809103010E949F0A80E00E94C50A8C2FB2
S1131E400E94C50A0E94DC0ACF9108955C9A549AB4
S1131E502FEF36E781E0215030408040E1F700C0A9
S1131E6000009BB180E198279BB99FEF26E731E002
S1131E70915020403040E1F700C000009BB1892719
S1131E808BB98FEF96E721E0815090402040E1F735
S1131E9000C000008EEA0E94160F85ED0E94160F06
S1131EA080E80E94160F88EA0E94160F8FE30E94B2
S1131EB0160F83ED0E94160F80E00E94160F80E437
S1131EC00E94160F8DE80E94160F84E10E94160FDF
S1131ED081EA0E94160F88EC0E94160F8AED0E9478
S1131EE0160F82E10E94160F81E80E94160F8FECF4
S1131EF00E94160F89ED0E94160F81EF0E94160FA3
S1131F008BED0E94160F80E40E94160F84EA0E9453
S1131F10160F86EA0E94160F8FEA0E94160F089584
S1131F208FEA0E94160F08958EEA0E94160F0895F4
S1131F30CF93C82F809103010E949F0A80E40E94DE
S1131F40C50A8C2F0E94C50A0E94DC0ACF9108950D
S1131F50CF93C62F80550E94160F8C2F880F880FA1
S1131F60880F88708E5F0E94160F8C2F90E09695D4
S1131F7087958F70805F0E94160FCF910895CF933D
S1131F80DF93D0E060E08D2F0E94A80FC1E880E0CD
S1131F900E94980FC150D9F7DF5FD83099F7DF91CD
S1131FA0CF910895DF92EF92FF920F931F93CF93F7
S1131FB0DF93D42E873008F087E0F62E90E6899FD1
S1131FC0E0011124C851DE4E6894EE24E2F8E60ED6
S1131FD06D2D8F2D0E94A80F8E01085E1F4FFE01EC
S1131FE084910E94980F2196C017D107C1F7F394EA
S1131FF0E801FE10EDCFDF91CF911F910F91FF907B
S1132000EF90DF9008950F931F93CF93DF938C018C
S1132010DC018C9181111BC01DC0D801EC91F0E052
S1132020EE0FFF1FEE0FFF1FEE0FFF1FE859FC4FCF
S1132030EC0FFD1F84910E94980F2196C830D105A2
S113204061F70F5F1F4FF8018081882319F0C0E00A
S1132050D0E0E3CFDF91CF911F910F910895DF92EC
S1132060EF92FF920F931F93CF93DF93D42E873079
S113207008F087E0F62E20E531E0829FE001839F9F
S1132080D00D1124C859D84F6894EE24E3F8E60E15
S11320906D2D8F2D0E94A80F8E01065D1F4FFE012E
S11320A084910E94980F2196C017D107C1F7F39429
S11320B0E801FE10EDCFDF91CF911F910F91FF90BA
S11320C0EF90DF900895FF920F931F93CF93DF93C8
S11320D0C8E6D0E0F12C60E08F2D0E94A80F8E019D
S11320E000581F4FFE0184910E94980F2196C0173B
S11320F0D107C1F7F394E801F8E0FF12ECCFDF91C8
S1132100CF911F910F91FF9008950F931F93CF9339
S1132110DF93082F809103010E949F0A80E40E94AC
S1132120C50A10E0E801CC0FDD1FCC0FDD1FCC0F7A
S1132130DD1FC859DC4F000F111F000F111F000FC6
S1132140111F00591C4FFE0184910E94C50A21965B
S1132150C017D107C1F70E94DC0ADF91CF911F910C
S10B21600F910895F894FFCFDC
S11321680A0AFF78424C494B41005449004B414DFF
S1132178455241004E455A414F535452554A450021
S1132188505249424C495A554A4500544F544F20DD
S1132198204D410045535445004E454E4155434951
S10F21A84C005A4F4252415A4954000066
S9030000FC
