:100000000C94FE000C9424010C9424010C94240103
:100010000C9424010C9424010C9424010C942401CC
:100020000C9424010C9424010C9424010C942401BC
:100030000C9424010C9424010C94BB030C94240113
:100040000C9424010C9424010C9424010C9424019C
:100050000C9484030C9424010C9424010C9424012A
:100060000C9424010C9446020C94E5020C94240197
:100070000C94B0020C944F030C9424010C942401B2
:100080000C9424010C9424010C9424010C9424015C
:100090000C9424010C9424010C9424010C9424014C
:1000A0000C9424010C9424010C9424010C9424013C
:1000B0000C9424010C9424010C9424010C9424012C
:1000C0000C9424010C9424010C9424010C9424011C
:1000D0000C9424010C9424010C9424010C9424010C
:1000E0000C9424010C9424010C947B020C941A03AC
:1000F0000C9424010C9424010C9424010C942401EC
:100100000C9424010C9424010C9424010C942401DB
:100110000C9424010C9424010C9424010C942401CB
:100120000C9424010C9424010C9424010C942401BB
:100130000C9424010C9424010C9424010C942401AB
:100140000C9424010C9424010C9424010C9424019B
:100150000C9424010C9424010C9424010C9424018B
:100160000C9424010C9424010C9424010C9424017B
:100170000C9424010C9424010C9424010C9424016B
:100180000C9424010C9424010C9424010C9424015B
:100190000C9424010C9424010C9424010C9424014B
:1001A0000C9424010C9424010C9424010C9424013B
:1001B0000C9424010C9424010C9424010C9424012B
:1001C0000C9424010C9424010C9424010C9424011B
:1001D0000C9424010C9424010C9424010C9424010B
:1001E0000C9424010C9424010C9424010C942401FB
:1001F0000C9424010C9424010C94240111241FBE9E
:10020000CFEFCDBFDFE3DEBF00E00CBF18BE19BEED
:100210001ABE1BBE10E2A0E0B0E2ECE2F9E000E0A2
:100220000BBF02C007900D92A430B107D9F71BBED7
:1002300024E2A4E0B0E201C01D92AD39B207E1F7BB
:100240000E94DD010C9494040C940000E0E4F6E0BC
:1002500088E0818384E0828381E08183868382E0F9
:100260008183868341E060EA78E087E091E20E9442
:100270000004E0EAF8E083E0858383818F7C80617D
:1002800083838CE086831782848180618483848168
:10029000886084830895EF920F93E0E4F6E080E8AD
:1002A000818380E48283EE24E39408E120E040E04F
:1002B00060E280E496E00E94CF0341E060EB78E0EA
:1002C00086E993E20E940004E0EBF8E083E0858396
:1002D00083818F7C806183838CE086831782848115
:1002E000806184838481886084830F91EF90089576
:1002F00080E197E2809326089093270861E080E0F0
:1003000098E00E94F40367E080E098E00C94E80332
:1003100080E991E0809366089093670861E080E44B
:1003200098E00E94FA0367E080E498E00C94EE0302
:10033000CF9388E080930908C0E0809104208C1757
:1003400068F0EC2FF0E0EA5EFC4D608187E091E21E
:100350000E941B04882389F3CF5FEFCF1092042003
:10036000CF910895CF93C0E0809105208C1768F05D
:10037000EC2FF0E0E95FFF4D608186E993E20E9497
:100380001B04882389F3CF5FEFCF10920520CF9114
:100390000895CF9388E080930908C0E0EC2FF0E047
:1003A000E050F04E608187E091E20E941B048111D1
:1003B000CF5FC43098F3CF9108950E9426010E9428
:1003C0004B010E9478010E9488018091A200876001
:1003D0008093A2007894809100208823D1F00E941D
:1003E000C9011092002015C0C0910420D0E086E918
:1003F00093E20E944704CA5EDC4D8883809104200A
:10040000E82FF0E0EA5EFC4D90819E3749F40E94AF
:10041000980186E993E20E943C048111E5CF1EC059
:100420008F5F87FD03C080930420F3CF10920420D8
:10043000F0CFC0910520D0E087E091E20E94470410
:10044000C95FDF4D888380910520E82FF0E0E95FE8
:10045000FF4D90819E3749F40E94B20187E091E2FE
:100460000E943C048111E5CF0AC08F5F8093052074
:100470008091042087FFF2CF10920420EFCF87E80D
:1004800093E10197F1F700C00000A5CF1F920F92F2
:100490000FB60F92112408B60F9218BE09B60F922C
:1004A00019BE0BB60F921BBE2F933F934F935F93D2
:1004B0006F937F938F939F93AF93BF93EF93FF932C
:1004C00087E091E20E945504FF91EF91BF91AF91B7
:1004D0009F918F917F916F915F914F913F912F915C
:1004E0000F900BBE0F9009BE0F9008BE0F900FBE6D
:1004F0000F901F9018951F920F920FB60F92112414
:1005000008B60F9218BE09B60F9219BE0BB60F921D
:100510001BBE2F933F934F935F936F937F938F9364
:100520009F93AF93BF93EF93FF938FE092E20E946C
:100530005504FF91EF91BF91AF919F918F917F9162
:100540006F915F914F913F912F910F900BBE0F9044
:1005500009BE0F9008BE0F900FBE0F901F90189508
:100560001F920F920FB60F92112408B60F9218BE69
:1005700009B60F9219BE0BB60F921BBE2F933F9375
:100580004F935F936F937F938F939F93AF93BF939B
:10059000EF93FF9386E993E20E945504FF91EF9158
:1005A000BF91AF919F918F917F916F915F914F918B
:1005B0003F912F910F900BBE0F9009BE0F9008BE78
:1005C0000F900FBE0F901F9018951F920F920FB6AD
:1005D0000F92112408B60F9218BE09B60F9219BED9
:1005E0000BB60F921BBE2F933F934F935F936F9366
:1005F0007F938F939F93AF93BF93EF93FF9387E086
:1006000091E20E947204FF91EF91BF91AF919F918F
:100610008F917F916F915F914F913F912F910F90AB
:100620000BBE0F9009BE0F9008BE0F900FBE0F902B
:100630001F9018951F920F920FB60F92112408B6B3
:100640000F9218BE09B60F9219BE0BB60F921BBEC1
:100650002F933F934F935F936F937F938F939F93CA
:10066000AF93BF93EF93FF938FE092E20E947204E7
:10067000FF91EF91BF91AF919F918F917F916F917A
:100680005F914F913F912F910F900BBE0F9009BE3C
:100690000F9008BE0F900FBE0F901F9018951F92DD
:1006A0000F920FB60F92112408B60F9218BE09B61A
:1006B0000F9219BE0BB60F921BBE2F933F934F9311
:1006C0005F936F937F938F939F93AF93BF93EF93BA
:1006D000FF9386E993E20E947204FF91EF91BF912C
:1006E000AF919F918F917F916F915F914F913F91CA
:1006F0002F910F900BBE0F9009BE0F9008BE0F9068
:100700000FBE0F901F9018951F920F920FB60F9269
:10071000112408B60F9218BE2F938F939F93909138
:1007200008068091280620910E22921304C0209181
:1007300006208217B1F090930E22809306208091BC
:100740000E2290910620807C86958695890F809355
:10075000012080910E228F738093022082E080938B
:1007600000209F918F912F910F9008BE0F900FBE88
:100770000F901F9018951F920F920FB60F92112491
:1007800008B60F9218BE8F9381E0809300208F915E
:100790000F9008BE0F900FBE0F901F901895EF920C
:1007A0000F93FC010E29411102C090E001C090E8B6
:1007B000092B211102C090E001C090E4092B9FB7E2
:1007C000F8946093B000008B9FBF0F91EF90089555
:1007D000FC019081907F692B60830895FC019081DA
:1007E000907F692B60830895FC0196819C7F692B23
:1007F00066830895FC0196819C7F692B668308952A
:10080000FC01608371834283EC5FFE4F108231975D
:10081000108233961082319710820895FC01EB5FAD
:10082000FE4F9081319620819F5F9F7781E09213E8
:1008300001C080E008951F93CF93DF93EC01162F42
:100840000E940E048823A1F0DE01AB5FBE4F9C9195
:10085000FE01E90FF11DED57FF4F10839F5F9F775A
:100860009C93E881F98193819C7F2A81922B9383C9
:10087000DF91CF911F910895FC01ED5FFE4F208124
:100880003196908181E0291301C080E00895FC0138
:10089000EC5FFE4F2081DC01A20FB11D13968C91FD
:1008A00090819F5F9F7790830895CF93DF93FC01A2
:1008B000DC01AD5FBE4F9C919F5F9F77EF01CC5FE6
:1008C000DE4F2881C081D1818881921739F02C9127
:1008D000E20FF11D83839C9381E001C080E0DF91F2
:1008E000CF910895CF93DF93DC01AA5FBE4F3C9177
:1008F000FC01EB5FFE4F2081FC01C081D1813213EE
:1009000004C08B818C7F8B830CC02C91820F911D36
:10091000FC01ED57FF4F808188838C918F5F8F772B
:0C0920008C93DF91CF910895F894FFCFE5
:04092C000000007E49
:00000001FF
