S01300004D61696E53746174696F6E2E73726563AA
S11300000C94FE000C9416010C9416010C94160129
S11300100C9416010C9416010C9416010C94160100
S11300200C9416010C9416010C9416010C941601F0
S11300300C9416010C9416010C94D2020C94160123
S11300400C9416010C9416010C9416010C941601D0
S11300500C9497020C9416010C9416010C9416013E
S11300600C9416010C94C3010C942D020C941601EB
S11300700C9416010C9416010C9416010C941601A0
S11300800C9416010C9416010C9416010C94160190
S11300900C9416010C9416010C9416010C94160180
S11300A00C9416010C9416010C9416010C94160170
S11300B00C9416010C9416010C9416010C94160160
S11300C00C9416010C9416010C9416010C94160150
S11300D00C9416010C9416010C9416010C94160140
S11300E00C9416010C9416010C94F8010C94620201
S11300F00C9416010C9416010C9416010C94160120
S11301000C9416010C9416010C9416010C9416010F
S11301100C9416010C9416010C9416010C941601FF
S11301200C9416010C9416010C9416010C941601EF
S11301300C9416010C9416010C9416010C941601DF
S11301400C9416010C9416010C9416010C941601CF
S11301500C9416010C9416010C9416010C941601BF
S11301600C9416010C9416010C9416010C941601AF
S11301700C9416010C9416010C9416010C9416019F
S11301800C9416010C9416010C9416010C9416018F
S11301900C9416010C9416010C9416010C9416017F
S11301A00C9416010C9416010C9416010C9416016F
S11301B00C9416010C9416010C9416010C9416015F
S11301C00C9416010C9416010C9416010C9416014F
S11301D00C9416010C9416010C9416010C9416013F
S11301E00C9416010C9416010C9416010C9416012F
S11301F00C9416010C9416010C94160111241FBEC4
S1130200CFEFCDBFDFE3DEBF00E00CBF18BE19BEE9
S11302101ABE1BBE20E2A0E0B0E201C01D92A332D0
S1130220B207E1F70E94A4010C9436030C94000079
S1130230E0E4F6E088E0818384E0828381E08183E6
S1130240868382E08183868341E060EA78E084E00B
S113025090E20E94FE02E0EAF8E083E08583838175
S11302608F7C806183838CE08683178284818061A4
S113027084838481886084830895E0E8F6E088E0DC
S1130280818384E0828341E060EA7AE084E190E261
S11302900E94FE02E0EAFAE083E0858383818F7C9A
S11302A0806183838CE08683178284818061848368
S11302B0848188608483089580E197E2809326088E
S11302C09093270861E080E098E00E94F20267E0E2
S11302D080E098E00E94E602089580E991E080932E
S11302E066089093670861E080E498E00E94F80251
S11302F067E080E498E00E94EC020895E1EAF8E007
S1130300808185FFFDCF809102208093A008E1EADF
S1130310F8E0808185FFFDCF809100208093A008C4
S1130320E1EAF8E0808185FFFDCF80910120809390
S1130330A008E1EAF8E0808185FFFDCF81E68093A3
S1130340A0081092022008950E9418010E943D0105
S11303500E945C010E946D01E0EAF0E08281876006
S11303608283789480910220813021F08091022050
S1130370823011F40E947E018FE097E20197F1F739
S113038000C00000EFCF1F920F920FB60F921124FE
S113039008B60F9218BE09B60F9219BE0BB60F928B
S11303A01BBE2F933F934F935F936F937F938F93D2
S11303B09F93AF93BF93EF93FF9384E090E20E94E7
S11303C00703FF91EF91BF91AF919F918F917F911F
S11303D06F915F914F913F912F910F900BBE0F90B2
S11303E009BE0F9008BE0F900FBE0F901F90189576
S11303F01F920F920FB60F92112408B60F9218BED7
S113040009B60F9219BE0BB60F921BBE2F933F93E2
S11304104F935F936F937F938F939F93AF93BF9308
S1130420EF93FF9384E190E20E940703FF91EF9121
S1130430BF91AF919F918F917F916F915F914F91F8
S11304403F912F910F900BBE0F9009BE0F9008BEE5
S11304500F900FBE0F901F9018951F920F920FB61A
S11304600F92112408B60F9218BE09B60F9219BE46
S11304700BB60F921BBE2F933F934F935F936F93D3
S11304807F938F939F93AF93BF93EF93FF9384E0F6
S113049090E20E941C03FF91EF91BF91AF919F9155
S11304A08F917F916F915F914F913F912F910F9019
S11304B00BBE0F9009BE0F9008BE0F900FBE0F9099
S11304C01F9018951F920F920FB60F92112408B621
S11304D00F9218BE09B60F9219BE0BB60F921BBE2F
S11304E02F933F934F935F936F937F938F939F9338
S11304F0AF93BF93EF93FF9384E190E20E941C03B8
S1130500FF91EF91BF91AF919F918F917F916F91E7
S11305105F914F913F912F910F900BBE0F9009BEA9
S11305200F9008BE0F900FBE0F901F9018951F924A
S11305300F920FB60F92112408B60F9218BE2F9384
S11305408F939F9380910806909128062091132001
S1130550821304C0209103209217D1F080931320BA
S1130560909303208091132090910320807C8695A2
S11305708695890F80930020809113208695869517
S11305808093012082E08093022088E08093090810
S11305909F918F912F910F9008BE0F900FBE0F90D7
S11305A01F9018951F920F920FB60F92112408B640
S11305B00F9218BE8F9381E0809302208F910F9049
S11305C008BE0F900FBE0F901F901895FC019081EC
S11305D0907F692B60830895FC019081907F692B43
S11305E060830895FC0196819C7F692B668308953E
S11305F0FC0196819C7F692B66830895FC016083CE
S11306007183428314861386168615860895FC0129
S113061093859F5F93708485A081B1812C919817F5
S113062049F08385DF01A80FB11D13962C9393879E
S113063081E0089580E00895FC01968585859813EE
S113064007C00190F081E02D83818C7F838308951E
S11306508685DF01A80FB11D17968C91A081B18109
S11306608C9386858F5F837086870895F894FFCF77
S9030000FC
